:103800000C942A1C0C94261F0C94471C0C94471CE7
:103810000C94471C0C94471C0C94471C0C94471C9C
:103820000C94471C0C94471C0C94471C0C94471C8C
:103830000C94471C0C94471C0C94471C0C94471C7C
:103840000C94471C0C94471C0C94471C0C94471C6C
:103850000C94471C11241FBECFE5D4E0DEBFCDBFC2
:1038600010E0A0E6B0E0ECEBFFE302C005900D92A3
:10387000AE37B107D9F720E0AEE7B0E001C01D9246
:10388000A13AB207E1F70E94501C0C94DC1F0C9483
:10389000001C81E090E09093A00080939F00089529
:1038A000CF93DF93CDB7DEB72A970FB6F894DEBF7C
:1038B0000FBECDBF0E94541D2FEF84E39CE021502A
:1038C00080409040E1F700C0000085E0E3E7F0E0D1
:1038D000DE01119601900D928A95E1F785E0E8E707
:1038E000F0E0DE01169601900D928A95E1F741E035
:1038F000BE016F5F7F4F81E00E94BE1DCE01069624
:103900000E94551EEFE7F0E080EE848380E7858318
:1039100085E3868381E0878381EA808763E081E0B5
:103920000E946F1E80E48ABF7894B89A80919F00AD
:103930009091A000892B51F08FE790E00E94E41E47
:103940000E94151F1092A00010929F00C0982FE7B0
:103950008AE196E0215080409040E1F700C00000ED
:1039600060E08FE790E00E949C1EC09A2FE78AE1FA
:1039700096E0215080409040E1F700C00000D6CF93
:10398000C2988FEF0E94D71FC29A08950F931F937A
:10399000CF93DF938B01D42FC2988F7180620E94E6
:1039A000D71FC82F6D2FC8010E94C51FC29A8C2F28
:1039B000DF91CF911F910F91089580916D00882321
:1039C00031F045E063E670E08AE00E94C61C08958D
:1039D000EF92FF920F931F93CF937B018A01C22F27
:1039E000C2980E94D71FCC2369F00115110529F454
:1039F0006C2FC7010E94C51F05C04C2FB801C7011D
:103A00000E94AF1FC29ACF911F910F91FF90EF902C
:103A100008950F931F93CF93DF93EB01142F44234B
:103A200069F0FB012FEF240F30E02F5F3F4F260F8F
:103A3000371F9FEF9193E217F307E1F7C2988F7159
:103A40000E94D71F082F412FBE0180E090E00E9406
:103A5000AF1FC29A802FDF91CF911F910F910895D0
:103A6000CF93DF931F92CDB7DEB741E0BE016F5F0A
:103A70007F4F80E00E94091D898180FD11C0816017
:103A8000898341E0BE016F5F7F4F80E00E94C61CCA
:103A900086E58A95F1F700C086E58A95F1F700C0C2
:103AA0000F90DF91CF9108951F93CF93DF931F92D3
:103AB000CDB7DEB710927E00C398BB9ABA9A8A98A7
:103AC0008BB780648BBF85B7826085BF87EF9AE232
:103AD0000197F1F700C000000E94A21F83E08983D4
:103AE00041E0BE016F5F7F4F0E94C61C85E1898364
:103AF00041E0BE016F5F7F4F84E00E94C61C10E76B
:103B0000198341E0BE016F5F7F4F85E00E94C61CB4
:103B100089E0898341E0BE016F5F7F4F86E00E94AC
:103B2000C61C8FE0898341E0BE016F5F7F4F80E05C
:103B30000E94C61C198341E0BE016F5F7F4F87E082
:103B40000E94C61C20E040E050E060E070E081EEA2
:103B50000E94E81C20E040E050E060E070E082EE6F
:103B60000E94E81C8FEC97E00197F1F700C000007D
:103B7000C39A0F90DF91CF911F910895CF92DF925A
:103B8000EF92FF920F931F93CF93DF931F92CDB7C6
:103B9000DEB7863008F07FC0811116C0DB019C9132
:103BA000E3E6F0E0908311969C9111979183129631
:103BB0009C911297928313969C91139793831496DA
:103BC0009C91948395E005C0823010F495E001C08B
:103BD00091E0042F182F492F8AE0810F0E94C61C04
:103BE00041E0BE016F5F7F4F81E00E94091DC12E41
:103BF000D12C81E090E07C01012E02C0EE0CFF1C74
:103C00000A94E2F789818E29898341E0BE016F5FC2
:103C10007F4F81E00E94C61C011109C022C041E013
:103C2000BE016F5F7F4F82E00E94C61C34C080E2FD
:103C3000898341E0BE016F5F7F4F81E1810F0E9468
:103C4000C61C8981F601E359FF4F808341E0BE0124
:103C50006F5F7F4F82E00E94091D8981E82AE98217
:103C6000DECF198241E0BE016F5F7F4F81E1810F9E
:103C70000E94C61C8981F601E359FF4F808341E011
:103C8000BE016F5F7F4F82E00E94091DE094898131
:103C9000E822E982C4CF0F90DF91CF911F910F915D
:103CA000FF90EF90DF90CF900895FC018081A8E60F
:103CB000B0E08C93818111968C931197828112963A
:103CC0008C931297838113968C9313978481149607
:103CD0008C9345E0BF0180E10E94C61C08950F93BC
:103CE0001F93CF93DF931F92CDB7DEB76430F0F40C
:103CF0008230E0F4162F082F41E0BE016F5F7F4F46
:103D000086E00E94091D89818660612F660F682305
:103D1000002319F06860698302C0677F698341E00E
:103D2000BE016F5F7F4F86E00E94C61C0F90DF913F
:103D3000CF911F910F910895EF92FF921F93CF9310
:103D4000DF931F92CDB7DEB77C01162F81E0809301
:103D50007E00C39841E0BE016F5F7F4F80E00E940C
:103D6000091D898180FF11C08E7F898341E0BE01DA
:103D70006F5F7F4F80E00E94C61C86E58A95F1F751
:103D800000C086E58A95F1F700C045E068E670E07E
:103D90008AE00E94C61C20E240E050E0B70180EAC1
:103DA0000E94E81CC39A111107C080917E00811106
:103DB000FCCF8091600001C081E00F90DF91CF9136
:103DC0001F91FF90EF900895CF93DF93EC01109235
:103DD0007E00C3980E94C01C8E7090E095958795D8
:103DE0009C013327F901E359FF4F4081413290F4A0
:103DF000873091F0F901E359FF4F2081AE01BE01F8
:103E000081E60E94E81C0E94C01C8E708E3031F446
:103E100084E005C080E003C082E001C083E0C39A73
:103E200010927E00DF91CF91089520E040E050E0B5
:103E300060E070E081EE0E94E81C20E040E050E08D
:103E400060E070E082EE0E94E81C08951F920F92DD
:103E50000FB60F9211242F933F934F935F936F935D
:103E60007F938F939F93AF93BF93EF93FF93CF93E2
:103E7000DF931F92CDB7DEB780E48ABFC3980E945C
:103E8000C01C898386FF04C08E7086950E94491CE1
:103E9000898185FF1DC010927E000E94DD1C0E945A
:103EA000301D8091610090916200880F991F90935E
:103EB0006200809361008091610090916200816056
:103EC000909362008093610081E0809360001CC049
:103ED00084FF1AC020E040E050E060E070E081EE36
:103EE0000E94E81C10927E000E94DD1C0E94301D82
:103EF0008091610090916200880F991F90936200F9
:103F0000809361001092600080E7898341E0BE01E8
:103F10006F5F7F4F87E00E94C61CC39A0F90DF91AE
:103F2000CF91FF91EF91BF91AF919F918F917F9131
:103F30006F915F914F913F912F910F900FBE0F9016
:103F40001F90189587B38F7087BB87B3806B87BB33
:103F5000C49A80E58DB981E08EB9C4980895442350
:103F600099F0FC01A62FB72F4150242F30E02F5F8E
:103F70003F4F280F391F91919FB9779BFECF9FB17B
:103F80009D93E217F307B9F70895662379F0FC01D2
:103F90006150262F30E02F5F3F4F280F391F91913E
:103FA0009FB9779BFECFE217F307C9F708958FB942
:0C3FB000779BFECF8FB10895F894FFCFEF
:103FBC0001FF00E7E7E7E7E7E7E7E7E7E7202000AF
:0E3FCC00000000E0703501A1E4E4E4E4E4004C
:0400000300003800C1
:00000001FF
