:100000000C942A000C9426030C9447000C9447008F
:100010000C9447000C9447000C9447000C94470044
:100020000C9447000C9447000C9447000C94470034
:100030000C9447000C9447000C9447000C94470024
:100040000C9447000C9447000C9447000C94470014
:100050000C94470011241FBECFE5D4E0DEBFCDBF16
:1000600010E0A0E6B0E0ECEBF7E002C005900D92E6
:10007000AE37B107D9F720E0AEE7B0E001C01D927E
:10008000A13AB207E1F70E9450000C94DC030C94F3
:10009000000081E090E09093A00080939F0008957D
:1000A000CF93DF93CDB7DEB72A970FB6F894DEBFB4
:1000B0000FBECDBF0E9454012FEF84E39CE021507E
:1000C00080409040E1F700C0000085E0E3E7F0E009
:1000D000DE01119601900D928A95E1F785E0E8E73F
:1000E000F0E0DE01169601900D928A95E1F741E06D
:1000F000BE016F5F7F4F81E00E94BE01CE01069678
:100100000E945502EFE7F0E080EE848380E785836C
:1001100085E3868381E0878381EA808763E081E0ED
:100120000E946F0280E48ABF7894B89A80919F0001
:100130009091A000892B51F08FE790E00E94E4029B
:100140000E9415031092A00010929F00C0982FE704
:100150008AE196E0215080409040E1F700C0000025
:1001600060E08FE790E00E949C02C09A2FE78AE14E
:1001700096E0215080409040E1F700C00000D6CFCB
:10018000C2988FEF0E94D703C29A08950F931F93CE
:10019000CF93DF938B01D42FC2988F7180620E941E
:1001A000D703C82F6D2FC8010E94C503C29A8C2F98
:1001B000DF91CF911F910F91089580916D00882359
:1001C00031F045E063E670E08AE00E94C6000895E1
:1001D000EF92FF920F931F93CF937B018A01C22F5F
:1001E000C2980E94D703CC2369F00115110529F4A8
:1001F0006C2FC7010E94C50305C04C2FB801C70171
:100200000E94AF03C29ACF911F910F91FF90EF9080
:1002100008950F931F93CF93DF93EB01142F442383
:1002200069F0FB012FEF240F30E02F5F3F4F260FC7
:10023000371F9FEF9193E217F307E1F7C2988F7191
:100240000E94D703082F412FBE0180E090E00E945A
:10025000AF03C29A802FDF91CF911F910F91089524
:10026000CF93DF931F92CDB7DEB741E0BE016F5F42
:100270007F4F80E00E940901898180FD11C081606B
:10028000898341E0BE016F5F7F4F80E00E94C6001E
:1002900086E58A95F1F700C086E58A95F1F700C0FA
:1002A0000F90DF91CF9108951F93CF93DF931F920B
:1002B000CDB7DEB710927E00C398BB9ABA9A8A98DF
:1002C0008BB780648BBF85B7826085BF87EF9AE26A
:1002D0000197F1F700C000000E94A20383E0898328
:1002E00041E0BE016F5F7F4F0E94C60085E18983B8
:1002F00041E0BE016F5F7F4F84E00E94C60010E7BF
:10030000198341E0BE016F5F7F4F85E00E94C60008
:1003100089E0898341E0BE016F5F7F4F86E00E94E4
:10032000C6008FE0898341E0BE016F5F7F4F80E0B0
:100330000E94C600198341E0BE016F5F7F4F87E0D6
:100340000E94C60020E040E050E060E070E081EEF6
:100350000E94E80020E040E050E060E070E082EEC3
:100360000E94E8008FEC97E00197F1F700C00000D1
:10037000C39A0F90DF91CF911F910895CF92DF9292
:10038000EF92FF920F931F93CF93DF931F92CDB7FE
:10039000DEB7863008F07FC0811116C0DB019C916A
:1003A000E3E6F0E0908311969C9111979183129669
:1003B0009C911297928313969C9113979383149612
:1003C0009C91948395E005C0823010F495E001C0C3
:1003D00091E0042F182F492F8AE0810F0E94C60058
:1003E00041E0BE016F5F7F4F81E00E940901C12E95
:1003F000D12C81E090E07C01012E02C0EE0CFF1CAC
:100400000A94E2F789818E29898341E0BE016F5FFA
:100410007F4F81E00E94C600011109C022C041E067
:10042000BE016F5F7F4F82E00E94C60034C080E251
:10043000898341E0BE016F5F7F4F81E1810F0E94A0
:10044000C6008981F601E359FF4F808341E0BE0178
:100450006F5F7F4F82E00E9409018981E82AE9826B
:10046000DECF198241E0BE016F5F7F4F81E1810FD6
:100470000E94C6008981F601E359FF4F808341E065
:10048000BE016F5F7F4F82E00E940901E094898185
:10049000E822E982C4CF0F90DF91CF911F910F9195
:1004A000FF90EF90DF90CF900895FC018081A8E647
:1004B000B0E08C93818111968C9311978281129672
:1004C0008C931297838113968C931397848114963F
:1004D0008C9345E0BF0180E10E94C60008950F9310
:1004E0001F93CF93DF931F92CDB7DEB76430F0F444
:1004F0008230E0F4162F082F41E0BE016F5F7F4F7E
:1005000086E00E94090189818660612F660F682359
:10051000002319F06860698302C0677F698341E046
:10052000BE016F5F7F4F86E00E94C6000F90DF9193
:10053000CF911F910F910895EF92FF921F93CF9348
:10054000DF931F92CDB7DEB77C01162F81E0809339
:100550007E00C39841E0BE016F5F7F4F80E00E9444
:100560000901898180FF11C08E7F898341E0BE012E
:100570006F5F7F4F80E00E94C60086E58A95F1F7A5
:1005800000C086E58A95F1F700C045E068E670E0B6
:100590008AE00E94C60020E240E050E0B70180EA15
:1005A0000E94E800C39A111107C080917E0081115A
:1005B000FCCF8091600001C081E00F90DF91CF916E
:1005C0001F91FF90EF900895CF93DF93EC0110926D
:1005D0007E00C3980E94C0008E7090E0959587952C
:1005E0009C013327F901E359FF4F4081413290F4D8
:1005F000873091F0F901E359FF4F2081AE01BE0130
:1006000081E60E94E8000E94C0008E708E3031F4B6
:1006100084E005C080E003C082E001C083E0C39AAB
:1006200010927E00DF91CF91089520E040E050E0ED
:1006300060E070E081EE0E94E80020E040E050E0E1
:1006400060E070E082EE0E94E80008951F920F9231
:100650000FB60F9211242F933F934F935F936F9395
:100660007F938F939F93AF93BF93EF93FF93CF931A
:10067000DF931F92CDB7DEB780E48ABFC3980E9494
:10068000C000898386FF04C08E7086950E94490051
:10069000898185FF1DC010927E000E94DD000E94AE
:1006A00030018091610090916200880F991F9093B2
:1006B000620080936100809161009091620081608E
:1006C000909362008093610081E0809360001CC081
:1006D00084FF1AC020E040E050E060E070E081EE6E
:1006E0000E94E80010927E000E94DD000E9430010E
:1006F0008091610090916200880F991F9093620031
:10070000809361001092600080E7898341E0BE0120
:100710006F5F7F4F87E00E94C600C39A0F90DF9102
:10072000CF91FF91EF91BF91AF919F918F917F9169
:100730006F915F914F913F912F910F900FBE0F904E
:100740001F90189587B38F7087BB87B3806B87BB6B
:10075000C49A80E58DB981E08EB9C4980895442388
:1007600099F0FC01A62FB72F4150242F30E02F5FC6
:100770003F4F280F391F91919FB9779BFECF9FB1B3
:100780009D93E217F307B9F70895662379F0FC010A
:100790006150262F30E02F5F3F4F280F391F919176
:1007A0009FB9779BFECFE217F307C9F708958FB97A
:0C07B000779BFECF8FB10895F894FFCF27
:1007BC0001FF00E7E7E7E7E7E7E7E7E7E7202000E7
:0E07CC00000000E0703501A1E4E4E4E4E40084
:00000001FF
