:1000000033C000004CC000004AC0000048C00000DF
:1000100046C0000044C0000042C0000040C00000D4
:100020003EC000003CC000003AC0000038C00000E4
:1000300036C0000034C0000032C0000030C00000F4
:100040002EC000002CC000004EC0000028C00000E0
:100050003EC0000024C0000022C0000020C00000FC
:100060001EC000001CC0000011241FBECFEFD8E04E
:10007000DEBFCDBF11E0A0E0B1E0E8E4F2E002C0F5
:1000800005900D92A436B107D9F721E0A4E6B1E0BE
:1000900001C01D92A039B207E1F702D0D3C0B0CFA2
:1000A000539A40E066E080E059D061E080E091E062
:1000B000AED098E08BB189278BB92FEF3FED80E16F
:1000C000215030408040E1F700C00000F3CF1F9284
:1000D0000F920FB60F921124109264010F900FBE71
:1000E0000F901F9018951F920F920FB60F92112428
:1000F0008F939F93EF93FF938091C0008C7191F049
:10010000E0ECF0E080818C7190E095958795959575
:1001100087958093650186E0809367018081837E67
:10012000808313C082E080936701E091660181E0E3
:100130008E0F809366019091C600F0E0E859FE4F63
:100140009083883210F010926601FF91EF919F9199
:100150008F910F900FBE0F901F90189591E08730F0
:1001600008F490E0911145C091E0673008F490E008
:1001700091113FC0109266011092640110926701C4
:10018000E1ECF0E0908198619083A2ECB0E09C916A
:1001900096609C9390819068908390819064908306
:1001A000000070E0FB01EE0FFF1FE60FF71FEE0FE0
:1001B000FF1FE80FF11DEE0FFF1FE15FFE4F808173
:1001C00091818F3F2FEF9207B1F08093C4004130AF
:1001D00039F4E2ECF0E080818062808382E008956F
:1001E000423059F4E2ECF0E080818063808382E069
:1001F000089580E0089581E0089582E00895809355
:10020000C600E0ECF0E0808185FFFDCF08951F93EC
:10021000CF93DF93EC01162F892B51F0888188232F
:1002200039F02196ECDF209719F089918111FACFEE
:10023000112321F08AE0E3DF8DE0E1DFDF91CF9150
:080240001F910895F894FFCF0F
:100248004F6E652077697265207365747570000C50
:1002580000060001000000FFFFFFFF19000C00036B
:100268000001000000FFFF3300190008000300012F
:1002780000FFFF67003300100008000300FFFFCFF6
:10028800006700220010000700FFFF3B001D000967
:100298000004000000FFFF470023000B00050002D8
:0402A80000FFFF0054
:00000001FF
