:10280000CE18F819F916CE166A14FB146E160418B1
:0E2810002C1AA116EE151A1620142614641A9E
:10284000909381008093800081E0089590938300AD
:102850008093820081E008950F931F93CF93DF93BD
:102860008B01D42FC2988F7180620E94DF1AC82F0B
:102870006D2FC8010E94CD1AC29A8C2FDF91CF9183
:102880001F910F9108950F931F93CF93DF93EB0147
:10289000142F442369F0FB012FEF240F30E02F5F4A
:1028A0003F4F260F371F9FEF9193E217F307E1F792
:1028B000C2988F710E94DF1A082F412FBE0180E05D
:1028C00090E00E94B71AC29A802FDF91CF911F919A
:1028D0000F910895CF93DF93EC0141E0BC0180E0BC
:1028E0000E944314BE016F5F7F4F41E081E00E9470
:1028F0004314BE016E5F7F4F41E082E00E944314AB
:10290000BE016D5F7F4F41E083E00E944314BE0132
:102910006C5F7F4F41E084E00E944314BE016B5F17
:102920007F4F41E085E00E944314BE016A5F7F4F04
:1029300041E086E00E944314BE01695F7F4F41E0A1
:1029400087E00E944314BE01685F7F4F41E088E04A
:102950000E944314BE01675F7F4F41E089E00E94FF
:102960004314BE01665F7F4F45E08AE00E94431436
:10297000BE016E5E7F4F45E08BE00E944314BE01B6
:10298000665E7F4F41E08CE00E944314BE01655EAD
:102990007F4F41E08DE00E944314BE01645E7F4F93
:1029A00041E08EE00E944314BE01635E7F4F41E030
:1029B0008FE00E944314BE01625E7F4F45E080E1DC
:1029C0000E944314BE01645D7F4F41E087E10E9495
:1029D0004314BE01635D7F4F41E08CE10E944314CC
:1029E000BE01625D7F4F41E08DE10E94431481E0B2
:1029F000DF91CF910895FF920F931F93CF93DF93B1
:102A0000CDB7DEB728970FB6F894DEBF0FBECDBFA7
:102A1000122F2A833B834C83052F5D83F62E6E8312
:102A20007F8388876B817C8119828FEF850F80324D
:102A300008F0C7C0211113C0209161002223B9F012
:102A4000FB01A8E6B0E0215030E02F5F3F4F260F9A
:102A5000371F81918D93E217F307D9F708C0223011
:102A600030F041E08AE0820F0E942C1406C04091B1
:102A700061008AE0810F0E942C1441E0BE016F5F6B
:102A80007F4F81E00E9443148F81813061F481E0A7
:102A900090E0012E02C0880F991F0A94E2F79981F5
:102AA000892B89830CC081E090E0012E02C0880F41
:102AB000991F0A94E2F7809599818923898341E0DF
:102AC000BE016F5F7F4F81E00E942C1488858111C9
:102AD00028C0198241E0BE016F5F7F4F8CE10E94E8
:102AE000431481E090E0012E02C0880F991F0A94E0
:102AF000E2F79981892B898341E0BE016F5F7F4FA7
:102B00008CE10E942C1481E08093620041E0BE01C0
:102B10006F5F7F4F82E00E94431481E0F8123EC055
:102B200031C01092620081E0F81216C0198241E0B3
:102B3000BE016F5F7F4F81E1810F0E942C14E12F56
:102B4000F0E0E05AFF4F168A41E0BE016F5F7F4F11
:102B500082E00E94431416C0098341E0BE016F5F0A
:102B60007F4F81E1810F0E942C14E12FF0E0E05AA9
:102B7000FF4F068B41E0BE016F5F7F4F82E00E94F6
:102B800043140CC081E090E002C0880F991F1A9591
:102B9000E2F780959981892389830AC081E090E0DA
:102BA00002C0880F991F1A95E2F79981892B8983B2
:102BB00041E0BE016F5F7F4F82E00E942C1481E0F4
:102BC00001C082E028960FB6F894DEBF0FBECDBFDD
:102BD000DF91CF911F910F91FF900895CF93DF93D5
:102BE00000D0CDB7DEB71A82882319F0823021F0E9
:102BF00019C088E0898302C080E2898341E0BE0178
:102C00006F5F7F4F86E00E942C1441E0BE016E5F33
:102C10007F4F86E00E94431499818A81981304C0F3
:102C200081E003C082E001C083E00F900F90DF914C
:102C3000CF910895CF93DF9300D0CDB7DEB719823F
:102C40001A82813031F068F0823031F0833039F00F
:102C50001CC082E0898305C084E0898302C086E0CD
:102C6000898341E0BE016F5F7F4F86E00E942C1494
:102C700041E0BE016E5F7F4F86E00E944314998160
:102C80008A81981304C081E003C082E001C083E020
:102C90000F900F90DF91CF910895EF92FF920F93D5
:102CA0001F93CF937B018A01C22FC2980E94DF1A23
:102CB000CC2369F00115110529F46C2FC7010E947E
:102CC000CD1A05C04C2FB801C7010E94B71AC29A8D
:102CD000CF911F910F91FF90EF900895EF92FF9287
:102CE0001F93CF93DF931F92CDB7DEB79C019091D6
:102CF00060009430D1F0162F790141E0BE016F5F82
:102D00007F4F87E10E944314898184FF10C08FEFB9
:102D1000810F803270F4C398212F40E050E0B7015A
:102D200080EA0E944D1681E005C082E003C082E087
:102D300001C082E00F90DF91CF911F91FF90EF9043
:102D40000895CF93DF931F92CDB7DEB7198280919C
:102D500060008130F1F441E0BE016F5F7F4F80E0A1
:102D60000E94431489818E7F8260898341E0BE0185
:102D70006F5F7F4F80E00E942C14C3988FE99FE023
:102D80000197F1F700C0000082E08093600081E0CD
:102D900001C082E00F90DF91CF910895CF93DF9330
:102DA0001F92CDB7DEB71982809160008130E1F0CB
:102DB00041E0BE016F5F7F4F80E00E944314898134
:102DC0008D7F898341E0BE016F5F7F4F80E00E946D
:102DD0002C14C3988FE99FE00197F1F700C0000021
:102DE00081E08093600001C082E00F90DF91CF917D
:102DF0000895EF92FF920F931F93CF93DF93CDB778
:102E0000DEB72D970FB6F894DEBF0FBECDBFEA82B6
:102E1000FB820C831D832E83132F3F8348875987A2
:102E20006A877B878C879D87E0E6F0E0108285E0EB
:102E300081831282E3E6F0E028E630E087EE8193BA
:102E400084838187E217F307D1F7E0E6F0E080E2C0
:102E5000868B178A108E118E128E8FEF9FEF958FB3
:102E6000848F178E168E13A212A211A210A2BB9AE3
:102E7000BA9A8A98929A8D85813029F48BB78160AD
:102E80008BBF82E08BBF8BB780648BBF85B78260BE
:102E900085BF0E94AA1AC3988FEE95E50197F1F7B6
:102EA00000C00000E98241E0BE016F5F7F4F83E018
:102EB0000E942C14E394E394E09261008B8120E162
:102EC000829FC00111249C819F70892B898341E0DE
:102ED000BE016F5F7F4F84E00E942C148D81898337
:102EE00041E0BE016F5F7F4F85E00E942C14198284
:102EF0008885811102C080E889838E81882319F03A
:102F0000823029F007C089818860898303C0898164
:102F1000806289838985823041F0833051F081302D
:102F200059F489818260898307C08981846089839B
:102F300003C089818660898341E0BE016F5F7F4F56
:102F400086E00E942C14113051F48CE0898341E01A
:102F5000BE016F5F7F4F80E00E942C140BC01111E7
:102F600009C088E0898341E0BE016F5F7F4F80E048
:102F70000E942C1419828C85811102C081E0898302
:102F80008B85811103C08981826089838A85811143
:102F900003C089818460898341E0BE016F5F7F4FF8
:102FA0008DE10E942C1441E0BE016F5F7F4F87E0EE
:102FB0000E94431489818067898341E0BE016F5F6D
:102FC0007F4F87E00E942C1420E040E050E060E05A
:102FD00070E081EE0E944D1620E040E050E060E09D
:102FE00070E082EE0E944D160E94CE1681E02D9672
:102FF0000FB6F894DEBF0FBECDBFDF91CF911F910A
:103000000F91FF90EF900895CF92DF92EF92FF9291
:103010000F931F93CF93DF93CDB7DEB7A2970FB671
:10302000F894DEBF0FBECDBF9C019091600092303E
:1030300009F0A4C0F62E890141E0BE016F5F7F4F09
:1030400087E10E9443140F2EF0E6CF2EF0E0DF2E32
:10305000F02DD60111964C91B8018AE00E942C14F3
:10306000F6014181B80180E10E942C14C39AFDE170
:10307000FA95F1F70000C398F1107BC0F601868D38
:103080008823E9F3E0E6F0E0168E878D85FD06C023
:1030900080917F0084FB112710F901C010E080911E
:1030A0007F0086FF4EC0FE01329680E2DF011D9256
:1030B0008A95E9F7E0E6F0E0878D8E70C82ED12C76
:1030C000D594C79482818823F1F021E0AE014E5D52
:1030D0005F4FBA0180E60E944D162AA1AE014E5FF5
:1030E0005F4FBA0181E60E944D16E0918200F09197
:1030F0008300309731F14AA1BE016E5F7F4F8C2D66
:10310000099512E01EC07601FF24F701E05AFF4F37
:103110002689AE014E5F5F4FBA0181E60E944D16CF
:10312000E0918200F0918300309759F0D701A05AC6
:10313000BF4F56964C91BE016E5F7F4F8C2D099507
:1031400012E00F2EF0E6CF2EF0E0DF2EF02DF6018C
:10315000418168E670E08AE00E942C1482E0D6018A
:103160008C93E7E1F1E03197F1F700C00000812F87
:1031700006C084E08093600080E001C082E0A296F7
:103180000FB6F894DEBF0FBECDBFDF91CF911F9178
:103190000F91FF90EF90DF90CF900895CF92DF9244
:1031A000EF92FF920F931F93CF93DF93CDB7DEB7CC
:1031B000A1970FB6F894DEBF0FBECDBF809160001F
:1031C000833049F030F08430E1F0853009F487C075
:1031D000F9C081E0FEC0C39887E191E00197F1F763
:1031E00000C0000000E610E0D80111964C9168E69E
:1031F00070E08AE00E942C1482E0F801808381E074
:10320000E8C080917E00882309F4DEC0F894E0E6EF
:10321000F0E0168E789483E08083878D85FF09C067
:10322000E0918000F0918100309779F080E009957D
:103230000CC080917F0084FF08C0E0918000F09175
:103240008100309711F081E0099580917F0086FF21
:10325000BDC0FE01319680E2DF011D928A95E9F73B
:10326000E0E6F0E0078D0E7010E01595079582817D
:103270008823D9F021E0AE014F5D5F4FBA0180E6AF
:103280000E944D1629A1AE014F5F5F4FBA0181E642
:103290000E944D16E0918200F091830049A1BE0189
:1032A0006F5F7F4F802F099518C0F801E05AFF4FDC
:1032B0007F012689AE014F5F5F4FBA0181E60E9410
:1032C0004D16E0918200F0918300D70156964C9103
:1032D000BE016F5F7F4F802F099581E07AC080919A
:1032E0007E00882309F474C0F894E0E6F0E0168EBE
:1032F000878D86FF64C0EFE8F1E03197F1F700C0F9
:103300000000C398FE01319680E2DF011D928A958C
:10331000E9F710917F001E701695173009F44EC022
:103320000F2EF0E6EF2EF0E0FF2EF02DF701828158
:103330008823E1F021E0AE014F5D5F4FBA0180E6E6
:103340000E944D1629A1AE014F5F5F4FBA0181E681
:103350000E944D16D7019296ED91FC91939749A149
:10336000BE016F5F7F4F812F09951BC0812F90E0B9
:10337000FC01E05AFF4F6F012689AE014F5F5F4F9E
:10338000BA0181E60E944D16D7019296ED91FC910B
:103390009397D60156964C91BE016F5F7F4F812F58
:1033A0000995C2988FEF0E94DF1AF701878FC29AA2
:1033B000178D1E701695173009F0B8CFC39A789400
:1033C00081E007C080E005C081E003C081E001C06A
:1033D00081E0A1960FB6F894DEBF0FBECDBFDF919E
:1033E000CF911F910F91FF90EF90DF90CF900895B4
:1033F000CF93DF931F92CDB7DEB719828091600023
:10340000813029F141E0BE016F5F7F4F80E00E9473
:103410004314898180FF1BC08E7F898320E040E0B8
:1034200050E060E070E081EE0E944D1641E0BE0188
:103430006F5F7F4F80E00E942C1487E191E001973D
:10344000F1F700C00000C39882E08093600082E042
:103450000F90DF91CF910895CF93DF931F92CDB757
:10346000DEB7198280916000813039F141E0BE0100
:103470006F5F7F4F80E00E944314898180FD1FC0F1
:103480008160898320E040E050E060E070E082EEFF
:103490000E944D1641E0BE016F5F7F4F80E00E94A9
:1034A0002C1487E191E00197F1F700C00000C39A66
:1034B00085E08093600081E003C082E001C082E08B
:1034C0000F90DF91CF910895909160009530B1F405
:1034D000242FC398E7E1F1E03197F1F700C0000035
:1034E00040E050E0886A0E944D16C39A87E191E05F
:1034F0000197F1F700C0000081E0089582E008958F
:103500001F920F920FB60F9211248F93EF93FF9398
:1035100080E48ABFE0E6F0E0868D8F5F868FC298F8
:103520008FEF8FB9779BFECF8FB180937F00C29AC8
:10353000C29887E28FB9779BFECF80E78FB9779BE0
:10354000FECFC29AFF91EF918F910F900FBE0F9017
:103550001F90189587B38F7087BB87B3806B87BB2D
:10356000C49A80E58DB981E08EB9C498089544234A
:1035700099F0FC01A62FB72F4150242F30E02F5F88
:103580003F4F280F391F91919FB9779BFECF9FB175
:103590009D93E217F307B9F70895662379F0FC01CC
:1035A0006150262F30E02F5F3F4F280F391F919138
:1035B0009FB9779BFECFE217F307C9F708958FB93C
:0835C000779BFECF8FB1089547
