:103800000C942A1C0C94801A0C94471C0C94471C92
:103810000C94471C0C94471C0C94471C0C94471C9C
:103820000C94471C0C94471C0C94471C0C94471C8C
:103830000C94471C0C94471C0C94471C0C94471C7C
:103840000C94471C0C94471C0C94471C0C94471C6C
:103850000C94471C11241FBECFE5D4E0DEBFCDBFC2
:1038600010E0A0E9B0E0E8EFFDE302C005900D92A2
:10387000AE3AB107D9F720E0AEEAB0E001C01D9240
:10388000A23DB207E1F70E94491C0C94FA1E0C9469
:10389000001CCF93DF93CDB7DEB72B970FB6F8940C
:1038A000DEBF0FBECDBF8FE493EC0197F1F700C0F0
:1038B0000000B89A25E0CE010196FC01322F11924A
:1038C0003A95E9F71E828E01095F1F4FF8011192A8
:1038D0002A95E9F745E050E060E070E00E94D31ED1
:1038E00041E050E065E170E0CE0106960E94D31EF3
:1038F00045E050E066E170E0C8010E94D31E8E8171
:103900008A3A21F4CE0101960E94641DFFCF0895EA
:103910000F931F93CF93C42FE62FF72F81910FEAB8
:1039200010E0D80190968C9350E041505109BF01AE
:10393000C8010E94CA1EC150F801C1A38AEA82A32D
:10394000CF911F910F910895CF92DF92EF92FF9246
:103950000F931F93CF93DF93CDB7DEB763970FB667
:10396000F894DEBF0FBECDBF6C018CE0E1EAF0E061
:10397000DE01119601900D928A95E1F7E0919D008C
:10398000F0919E000590F491E02DE980FA800B8182
:103990001C812D813E814F81588569857A858B8573
:1039A0009C8509951D86DF86CE8685E0888B198AE1
:1039B00081E08A8B1B8AE0919B00F0919C0005902E
:1039C000F491E02D20E03E854F8555E060E071E008
:1039D00080E00995E0919300F09194000590F491B6
:1039E000E02D88E89CE10995E0919500F091960022
:1039F0000590F491E02D87E89CE10995E09197000E
:103A0000F09198000590F491E02D0995E0919900CE
:103A1000F0919A000590F491E02D099563960FB608
:103A2000F894DEBF0FBECDBFDF91CF911F910F91F4
:103A3000FF90EF90DF90CF900895CF92DF92EF92BA
:103A4000FF92CF93DF936B017C016FB7F894E199FC
:103A5000FECFC60123E0F60120935700E89507B694
:103A600000FCFDCFEA01C058DF4FDA0131E0FC0174
:103A7000E41BF50BAF012C91FA01EA0FFB1F119625
:103A80008C91119790E0982F8827820F911D0C013F
:103A900030935700E89511241296AC17BD0759F7DB
:103AA00085E0F60180935700E89507B600FCFDCF4E
:103AB00081E180935700E8956FBFDF91CF91FF9030
:103AC000EF90DF90CF9008952F923F924F925F92A8
:103AD0006F927F928F929F92AF92BF92CF92DF921E
:103AE000EF92FF920F931F93CF93DF93CDB7DEB783
:103AF000C358D1090FB6F894DEBF0FBECDBFEFEAB1
:103B0000F0E011A212A20E94A41C789483E5809395
:103B100090000F2E412CF1EE5F2EF5EF6F2EF5E0A9
:103B20007F2EF02DC12CD12CE12C0FEA10E00F2EAE
:103B3000FCE4FF2EF02D5E0123E0A20EB11C0F2E3F
:103B4000F4E49F2EF02D0F2EF5E32F2EF02D0F2EE7
:103B5000FBE43F2EF02D0F2EF2E38F2EF02DE0919F
:103B60009F00F091A0000590F491E02D0995F801D7
:103B700082A1882309F4B0C01A82198280A190E939
:103B8000980F923008F489C090919000973409F40E
:103B900055C028F4943489F09634A9F17BC0983448
:103BA00009F465C0933509F075C0873719F4909210
:103BB000900073C0F092900070C0853601F5F80156
:103BC00071A0472D50E0B801C5018E0D911D0E94D6
:103BD000CA1EE70C8E2D82958F70805D8A83F0E877
:103BE000EF1204C086E48093900057C020E82715A8
:103BF00008F053C0F092900081E38A834EC0F092A7
:103C000090008A824AC08237A1F480E38C0D8A83B7
:103C1000F894B6017695762F66277795679580E0BC
:103C200090E0A5010E941D1D789487E48093900088
:103C300034C0F092900083E38A832FC0843761F40C
:103C40008FEFC81AD80AF50120E811922A95E9F7F2
:103C500090929000E12C21C0893721F488E4809370
:103C600090001BC0F092900094E39A8316C03092AB
:103C70009000CD57DF4F1882C358D040F89441E0F0
:103C800050E065E170E0CE018D579F4F0E94E31E2A
:103C9000789403C0F09290002A82809190008983EA
:103CA000E0919100F09192000590F491E02D42E0B6
:103CB000BE016F5F7F4F8091AE000995F80112A29F
:103CC00020E720A30F2E412CF1EE5F2EF5EF6F2E93
:103CD000F5E07F2EF02D15C04114510461047104EC
:103CE00039F48CE48093900089E38A838CE410C0DB
:103CF0008DE08A95F1F7000091E0491A51086108BA
:103D000071088091900095EB980F923008F027CFC2
:103D10008C3431F56894EE24E5F88E010F5F1F4F67
:103D20000F2EFCE4FF2EF02DEFE7FAE126E0E15044
:103D3000F0402040E1F700C00000F8012E2D119264
:103D40002A95E9F7F982E0919100F09192000590AF
:103D5000F491E02D42E0B8018091AE000995E4CFE6
:103D6000CD57DF4F0FB6F894DEBF0FBECDBFDF914A
:103D7000CF911F910F91FF90EF90DF90CF90BF9068
:103D8000AF909F908F907F906F905F904F903F90FB
:103D90002F900895FB01DC0102C001900D9241506B
:103DA0005040D8F70895DC01CB01FC01E199FECF2A
:103DB00006C0FFBBEEBBE09A31960DB20D924150AA
:103DC0005040B8F70895DC01CB0103C02D910E944B
:103DD000EE1E41505040D0F70895262FE199FECFB6
:103DE0009FBB8EBB2DBB0FB6F894E29AE19A0FBE33
:083DF00001960895F894FFCF3D
:103DF800411C281A281828122810280A28042800E4
:0E3E080028030B0F70020101030000010100EE
