:106000001D351434C9329C32823028316C32483408
:10601000DC33AD3311323B3278307D300435FE3025
:106040000F931F93CF93DF938B01D42F2A988F71D7
:10605000806272D6C82F6D2FC8015BD62A9A8C2F0A
:10606000DF91CF911F910F9108950F931F93CF93BD
:10607000DF93EB01142F442369F0FB012FEF240F72
:1060800030E02F5F3F4F260F371F9FEF9193E217AE
:10609000F307E1F72A988F714FD6082F412FBE01E1
:1060A00080E090E01FD62A9A802FDF91CF911F9138
:1060B0000F910895EF92FF920F931F93CF937B015F
:1060C0008A01C22F2A9838D6CC2359F00115110520
:1060D00021F46C2FC7011DD604C04C2FB801C70195
:1060E00001D62A9ACF911F910F91FF90EF900895BA
:1060F000FC0171A360A381E00895FC0173A362A376
:1061000081E00895CF93DF93EB0141E080E0ADDFC4
:10611000BE016F5F7F4F41E081E0A7DFBE016E5F90
:106120007F4F41E082E0A1DFBE016D5F7F4F41E024
:1061300083E09BDFBE016C5F7F4F41E084E095DF31
:10614000BE016B5F7F4F41E085E08FDFBE016A5F7C
:106150007F4F41E086E089DFBE01695F7F4F41E00C
:1061600087E083DFBE01685F7F4F41E088E07DDF2D
:10617000BE01675F7F4F41E089E077DFBE01665F68
:106180007F4F45E08AE071DFBE016E5E7F4F45E0E4
:106190008BE06BDFBE01665E7F4F41E08CE065DF28
:1061A000BE01655E7F4F41E08DE05FDFBE01645E52
:1061B0007F4F41E08EE059DFBE01635E7F4F41E0DB
:1061C0008FE053DFBE01625E7F4F45E080E14DDF2F
:1061D000BE01645D7F4F41E087E147DFBE01635D43
:1061E0007F4F41E08CE141DFBE01625D7F4F41E0C6
:1061F0008DE13BDF81E0DF91CF910895613069F05F
:1062000018F0623099F022C020E040E050E060E0F9
:1062100070E082EE4FDF81E0089520E040E050E042
:1062200060E070E081EE46DF81E0089520E040E02C
:1062300050E060E070E081EE3DDF20E040E050E0C3
:1062400060E070E082EE36DF81E0089582E008953C
:10625000DF92EF92FF920F931F93CF93DF93CDB70F
:10626000DEB728970FB6F894DEBF0FBECDBF7C0116
:106270000A831B832C83132F3D83D42E4E835F838D
:1062800068876B81722F19829FEF930F903208F00D
:10629000B9C0011113C0F70121812223B1F0A62F4B
:1062A000B72F3896215030E0275F3F4F2E0D3F1D0E
:1062B0009D919193E217F307D9F707C0023028F0B8
:1062C00041E08AE0800FBCDE05C0F70141818AE031
:1062D000800FB6DE41E0BE016F5F7F4F81E0C5DE1B
:1062E0008F81813061F481E090E0002E02C0880F40
:1062F000991F0A94E2F79981892B89830CC081E068
:1063000090E0002E02C0880F991F0A94E2F7809552
:1063100099818923898341E0BE016F5F7F4F81E0CE
:106320008FDE8885811125C0198241E0BE016F5F33
:106330007F4F8CE19ADE81E090E0002E02C0880F52
:10634000991F0A94E2F79981892B898341E0BE0164
:106350006F5F7F4F8CE174DE81E0F701828341E063
:10636000BE016F5F7F4F82E080DEF1E0DF1238C058
:106370002BC0F7011282F1E0DF1213C0198241E055
:10638000BE016F5F7F4F81E1800F5ADEF701E00FA2
:10639000F11D168A41E0BE016F5F7F4F82E065DE2E
:1063A00013C0198341E0BE016F5F7F4F81E1800F11
:1063B00047DEF701E00FF11D168B41E0BE016F5F74
:1063C0007F4F82E052DE0CC081E090E002C0880F77
:1063D000991F0A95E2F780959981892389830AC0DC
:1063E00081E090E002C0880F991F0A95E2F7998139
:1063F000892B898341E0BE016F5F7F4F82E020DE01
:1064000081E001C082E028960FB6F894DEBF0FBE8F
:10641000CDBFDF91CF911F910F91FF90EF90DF9053
:106420000895CF93DF9300D0CDB7DEB71A826623ED
:1064300019F0623021F017C088E0898302C080E241
:10644000898341E0BE016F5F7F4F86E0F9DD41E067
:10645000BE016E5F7F4F86E008DE99818A819813C6
:1064600004C081E003C082E001C083E00F900F9080
:10647000DF91CF910895CF93DF9300D0CDB7DEB7F2
:1064800019821A82613031F068F0623031F0633085
:1064900039F01AC082E0898305C084E0898302C094
:1064A00086E0898341E0BE016F5F7F4F86E0C8DDF3
:1064B00041E0BE016E5F7F4F86E0D7DD99818A8122
:1064C000981304C081E003C082E001C083E00F9014
:1064D0000F90DF91CF910895EF92FF921F93CF938A
:1064E000DF931F92CDB7DEB7FC0180818430C1F00D
:1064F000142F7B0141E0BE016F5F7F4F87E1B5DD67
:10650000898184FF0FC08FEF810F803268F4299852
:10651000212F40E050E0B70180EACCDD81E005C0EA
:1065200082E003C082E001C082E00F90DF91CF9152
:106530001F91FF90EF9008950F931F93CF93DF93D8
:106540001F92CDB7DEB71982FC0120812130D1F036
:106550008C0141E0BE016F5F7F4F80E086DD898165
:106560008D7F898341E0BE016F5F7F4F80E068DDF2
:10657000299889E995E10197F1F700C081E0F801D8
:10658000808301C082E00F90DF91CF911F910F9126
:106590000895AF92BF92CF92DF92EF92FF920F9346
:1065A0001F93CF93DF93CDB7DEB72D970FB6F89437
:1065B000DEBF0FBECDBF5C01CA82DB82EC82FD82F2
:1065C0000E831F83288739874A875B876C877D877F
:1065D000219A229A52985A9A8D85813029F485B74A
:1065E000816085BF82E085BFE89AE9E6F0E08081BE
:1065F0008260808329988CEC96E70197F1F700C0C0
:10660000000065D3C50198DFC98241E0BE016F5F1C
:106610007F4F83E015DDC394C394F501C1828B8164
:10662000F0E18F9FC00111249C819F70892B898389
:1066300041E0BE016F5F7F4F84E002DD8D81898381
:1066400041E0BE016F5F7F4F85E0FADC19828885EB
:10665000811102C080E889838E81882319F08230FD
:1066600029F007C089818860898303C0898180629D
:1066700089838985823041F0833051F0813059F42B
:1066800089818260898307C089818460898303C08E
:1066900089818660898341E0BE016F5F7F4F86E01C
:1066A000CFDC113049F48CE0898341E0BE016F5F9B
:1066B0007F4F80E0C5DC0AC0111108C088E08983E3
:1066C00041E0BE016F5F7F4F80E0BADC19828C85AC
:1066D000811102C081E089838B85811103C089818A
:1066E000826089838A85811103C08981846089835E
:1066F00041E0BE016F5F7F4F8DE1A2DC41E0BE0152
:106700006F5F7F4F87E0B1DC89818067898341E0DB
:10671000BE016F5F7F4F87E093DC20E040E050E0F8
:1067200060E070E081EEC6DC20E040E050E060E038
:1067300070E082EEBFDC81E02D960FB6F894DEBFEC
:106740000FBECDBFDF91CF911F910F91FF90EF90C2
:10675000DF90CF90BF90AF9008950F931F93CF938A
:10676000DF931F92CDB7DEB71982FC012081213063
:10677000E1F48C0141E0BE016F5F7F4F80E075DC8A
:1067800089818E7F8260898341E0BE016F5F7F4F88
:1067900080E056DC299889E995E10197F1F700C07E
:1067A00082E0F801808381E001C082E00F90DF91F8
:1067B000CF911F910F9108950F931F93CF93DF9364
:1067C0001F92CDB7DEB71982FC012081213019F16B
:1067D0008C0141E0BE016F5F7F4F80E046DC898124
:1067E00080FD1BC08160898320E040E050E060E0D4
:1067F00070E082EE5FDC41E0BE016F5F7F4F80E0C2
:106800001FDC83E891E00197F1F7299A85E0F80110
:10681000808381E003C082E001C082E00F90DF91BD
:10682000CF911F910F9108950F931F93CF93DF93F3
:106830001F92CDB7DEB71982FC012081213009F10A
:106840008C0141E0BE016F5F7F4F80E00EDC8981EB
:1068500080FF17C08E7F898320E040E050E060E039
:1068600070E081EE27DC41E0BE016F5F7F4F80E08A
:10687000E7DB83E891E00197F1F7299882E0F801DE
:10688000808382E00F90DF91CF911F910F91089547
:10689000AF92BF92CF92DF92EF92FF920F931F932E
:1068A000CF93DF93CDB7DEB7A2970FB6F894DEBFD4
:1068B0000FBECDBFDC012C91223009F093C0D42E45
:1068C0007B018C0141E0BE016F5F7F4F87E1CDDB33
:1068D000F8014181B7018AE0B3DBD80111964C91F0
:1068E000B70180E1ADDB299AB8E2BA95F1F700C0B3
:1068F0002998D11072C0F801868D8823E1F3168E95
:10690000878D85FD05C0878D84FBFF24F0F801C0CD
:10691000F12CD8015F968C9186FF4FC0FE01329614
:1069200080E2DF011D928A95E9F7F801878D8E706C
:10693000C82ED12CD594C79482818823F9F021E008
:10694000AE014E5D5F4FBA0180E6B4DB2AA1AE0115
:106950004E5F5F4FBA0181E6ADDBD8019296ED91B3
:10696000FC919397309749F14AA1BE016E5F7F4F2A
:106970008C2D09956894FF24F1F81FC05601BB24A3
:10698000F801EA0DFB1D2689AE014E5F5F4FBA018B
:1069900081E690DBD8019296ED91FC919397309728
:1069A00061F0AA0DBB1D56964C91BE016E5F7F4FE4
:1069B0008C2D09956894FF24F1F8B801685F7F4F2A
:1069C000F80141818AE03CDB82E0D8018C93E3E866
:1069D000F1E03197F1F78F2D06C084E0D8018C9358
:1069E00080E001C082E0A2960FB6F894DEBF0FBE31
:1069F000CDBFDF91CF911F910F91FF90EF90DF906E
:106A0000CF90BF90AF900895DC019C91953099F4A0
:106A1000FA01862F2998A3E8B1E01197F1F740E039
:106A200050E0BF01886A46DB299AE3E8F1E031973C
:106A3000F1F781E0089582E00895CF92DF92EF921E
:106A4000FF920F931F93CF93DF93CDB7DEB7A1973C
:106A50000FB6F894DEBF0FBECDBF8C01DC018C9168
:106A6000833049F030F08430C1F0853009F485C0BE
:106A7000EDC081E0F2C02998E3E8F1E03197F1F749
:106A8000B801685F7F4FD80111964C918AE0D8DA3F
:106A900082E0F801808381E0E0C0D8015E968C91AD
:106AA0005E97882309F4D4C0F894F801168E789480
:106AB00083E08C935F968C915F9785FF09C09096D9
:106AC000ED91FC919197309771F080E009950BC0A2
:106AD000F801878D84FF07C000A0F1A1E02D309759
:106AE00011F081E00995D8015F968C9186FFB2C0C4
:106AF000FE01319680E2DF011D928A95E9F7F801E7
:106B0000878D8E70E82EF12CF594E794828188238E
:106B1000D1F021E0AE014F5D5F4FBA0180E6CADAE5
:106B200029A1AE014F5F5F4FBA0181E6C3DAD801F8
:106B30009296ED91FC91939749A1BE016F5F7F4FB3
:106B40008E2D099518C06801CE0CDF1CF601268930
:106B5000AE014F5F5F4FBA0181E6ACDAD801929681
:106B6000ED91FC919397D60156964C91BE016F5FC3
:106B70007F4F8E2D099581E070C0F801868D8823A6
:106B800009F46AC0F894168E878D86FF5CC0E8E22F
:106B9000F2E03197F1F700C000002998FE0131962C
:106BA00080E2DF011D928A95E9F7F801878D8E70EA
:106BB000F82EF694F7E0FF1609F444C0D8011296B7
:106BC0008C918823D1F021E0AE014F5D5F4FBA0177
:106BD00080E670DA29A1AE014F5F5F4FBA0181E60E
:106BE00069DAD8019296ED91FC91939749A1BE0183
:106BF0006F5F7F4F8F2D099518C06801CF0CD11C96
:106C0000F6012689AE014F5F5F4FBA0181E652DA85
:106C1000D8019296ED91FC919397D60156964C919E
:106C2000BE016F5F7F4F8F2D09952A988FEF84D01B
:106C3000F801878F2A9A878D8E70F82EF694F7E0E8
:106C4000FF12BCCF299A789481E007C080E005C08C
:106C500081E003C081E001C081E0A1960FB6F89405
:106C6000DEBF0FBECDBFDF91CF911F910F91FF907F
:106C7000EF90DF90CF9008951F920F920FB60F9272
:106C800011248F93EF93FF93E0E4F1E0868D8F5F03
:106C9000868F2A988FEF8EBD0DB407FEFDCF8EB57F
:106CA00080935F012A9A2A9887E28EBD0DB407FE71
:106CB000FDCF80E78EBD0DB407FEFDCF2A9AFF9170
:106CC000EF918F910F900FBE0F901F901895249801
:106CD00084B18C6284B92A9A80E58CBD81E08DBD37
:106CE0002A9808954423A1F0FC01A62FB72F415004
:106CF000242F30E02F5F3F4F280F391F91919EBD09
:106D00000DB407FEFDCF9EB59D93E217F307B1F7D3
:106D10000895662381F0FC016150262F30E02F5F3B
:106D20003F4F280F391F91919EBD0DB407FEFDCF37
:106D3000E217F307C1F708958EBD0DB407FEFDCF2E
:046D40008EB508956F
:1070000033C0000039CE00005BC0000059C0000052
:1070100057C0000055C0000053C0000051C0000020
:107020004FC000004DC000004BC0000049C0000030
:1070300047C0000045C0000043C0000041C0000040
:107040003FC000003DC000003BC0000039C0000050
:1070500037C0000035C0000033C0000031C0000060
:107060002FC000002DC0000011241FBECFEFD8E0BC
:10707000DEBFCDBF84B78093650184B7807E84BFB7
:107080000FB6F894A89580916000886180936000A5
:10709000109260000FBE11E0A0E0B1E0E8EBF8E76D
:1070A00002C005900D92AC31B107D9F721E0ACE1F7
:1070B000B1E001C01D92A436B207E1F702D0FAC3D5
:1070C0009FCF0F931F93CF93DF93CDB7DEB72B974F
:1070D0000FB6F894DEBF0FBECDBF2FEF3FEA81E0C1
:1070E000215030408040E1F700C0000025E0CE0193
:1070F0000196FC01322F11923A95E9F71E828E011A
:10710000095F1F4FF80111922A95E9F745E050E019
:1071100060E070E09ED341E050E065E170E0CE01B8
:10712000069697D345E050E066E170E0C80191D340
:107130008E818A3A19F4CE0101962AD00C9400006F
:1071400080E090E02B960FB6F894DEBF0FBECDBF67
:10715000DF91CF911F910F9108950F931F93CF93BC
:10716000C42FE62FF72F81910DE111E0D801909601
:107170008C9350E041505109BF01C80161D3C15007
:10718000F801C1A38AEA82A3CF911F910F910895BC
:10719000CF93DF93CDB7DEB7C559D1090FB6F894B9
:1071A000DEBF0FBECDBF5C011A821982EDE1F1E0B6
:1071B00011A212A28CE0EFE0F1E0DE01AD57BF4F6B
:1071C00001900D928A95E1F7E0910B01F0910C018D
:1071D0000590F491E02DCD57DF4FC880C358D040C3
:1071E000CC57DF4FD880C458D040CB57DF4FE88012
:1071F000C558D040CA57DF4FF880C658D040C9574D
:10720000DF4F0881C758D040C857DF4F1881C85892
:10721000D040C757DF4F2881C958D040C657DF4FED
:107220003881CA58D040C557DF4F4881CB58D0402D
:10723000C457DF4F5881CC58D040C357DF4F6881C7
:10724000CD58D040C257DF4F7881CE58D04080E42F
:1072500091E00995C157DF4F1882CF58D040C057F1
:10726000DF4FB982A882C059D04085E0CE56DF4FAB
:107270008883C259D040CD56DF4F1882C359D040C1
:10728000FF24F394CC56DF4FF882C459D040CB563C
:10729000DF4F1882C559D040E0910901F0910A01F1
:1072A0000590F491E02D00E0C057DF4F1881C059E0
:1072B000D040CF56DF4F2881C159D04035E040E063
:1072C00051E060E080E491E00995CD56DF4FF8820F
:1072D000C359D040C157DF4FF882CF58D040E0911A
:1072E0000901F0910A010590F491E02D0F2DC0578E
:1072F000DF4F1881C059D040CF56DF4F2881C15988
:10730000D040CE56DF4F3881C259D040CD56DF4FE6
:107310004881C359D040CC56DF4F5881C459D04022
:10732000CB56DF4F6881C559D04080E491E0099584
:10733000F39425E0F212CECFE0910301F091040125
:107340000590F491E02D6DEA78E380E491E00995F1
:10735000E0910501F09106010590F491E02D80E4A3
:1073600091E00995E0910701F09108010590F491F1
:10737000E02D80E491E00995789483E58093000105
:107380008983E0910101F09102010590F491E02DD3
:1073900022E0AE014F5F5F4F60911C0180E491E0FD
:1073A000099586E03AD20F2E412CF1EE5F2EF5EFD3
:1073B0006F2EF5E07F2EF02D00E010E0A12CB12C17
:1073C000C12C0F2EFDE1EF2EF1E0FF2EF02D0F2E40
:1073D000FCE4DF2EF02D4E0183E0880E911C0F2E71
:1073E000F4E43F2EF02D0F2EF6E32F2EF02D26D2B3
:1073F000E0910D01F0910E010590F491E02D80E4F3
:1074000091E00995F70182A1882309F441C11A820C
:107410001982F0E3FA83F70180A190E9980F923086
:1074200008F415C190910001973409F457C028F46D
:107430009434A1F09634C1F106C19A3409F4C0C065
:10744000933521F0983409F0FEC06CC0873719F4E9
:1074500030920001FCC0D0920001F9C08536F9F4E9
:10746000F70171A0472D50E0B701C4018C0D911DAB
:10747000E7D1C70C8C2D82958F70805D8A83F0E8F0
:10748000CF1204C086E480930001E1C020E82C15EF
:1074900008F0DDC0D092000181E38A83D8C0D09289
:1074A000000182E38A83D3C0823799F480E38A0D96
:1074B0008A83F894B5017695762F66277795679538
:1074C00080E090E0A40140D1789487E480930001AB
:1074D000BEC0D092000183E38A83B9C0843761F4CF
:1074E0008FEFA81AB80AF40120E811922A95E9F75B
:1074F00030920001C12CABC0893779F460EC70E0A8
:10750000C50169D1F701008110E0102F00278181AA
:10751000082BF8E4F09300019AC0D092000124E314
:107520002A8395C0893709F047C0A5014F5F5F4F97
:107530005695542F44275795479560E070E04115C4
:1075400051056105710509F429C0412C512C320106
:1075500080E090E0F20124918227282F22952827AD
:10756000022E269526952025022E26952025277069
:10757000082E892F269507942795902D822706940B
:10758000279590258227FFEF4F1A5F0A6F0A7F0A1F
:107590004416550666067706E8F202C080E090E0E1
:1075A0000817190721F48AE48093000150C0D09293
:1075B000000185E38A834BC0D09200012A8247C034
:1075C000853709F03BC0CD57DF4F188219821A82E8
:1075D0001B82C358D040F894CD57DF4F8881C358E1
:1075E000D04041E050E065E170E090E042D1CD57FD
:1075F000DF4F1883C358D040CC57DF4F0883C4589F
:10760000D040CB57DF4F1882C558D040CA57DF4F04
:107610001882C658D04044E050E069E070E0CE01E6
:107620008D579F4F26D178942FEF8FEB91E2215009
:1076300080409040E1F700C00000FFCFD0920001F1
:10764000E7E3EA8304C0D0920001F8E3FA83809173
:1076500000018983E0910101F09102010590F4910C
:10766000E02D22E0AE014F5F5F4F60911C0180E48E
:1076700091E00995F70112A220E720A30F2E412CDB
:10768000F1EE5F2EF5EF6F2EF5E07F2EF02D14C09A
:10769000411451046104710439F48CE480930001B5
:1076A00089E38A838CE40FC085E28A95F1F791E043
:1076B000491A5108610871088091000195EB980FF3
:1076C000923008F094CE8C3409F03DC089830F2E9F
:1076D000FFE2EF2EF5E7FF2EF02D0DE111E00F2E6A
:1076E000F0E7DF2EF02DE0910101F091020105900D
:1076F000F491E02D22E0AE014F5F5F4F60911C01DD
:1077000080E491E00995F80112A2D0A2E0910D0168
:10771000F0910E010590F491E02D80E491E009953F
:10772000F80182A1882321F080A18F3609F4FFCFD0
:107730008CEC9AE00197F1F700C0000091E0E91AA3
:10774000F10889F6FFCFFFCFCF92DF92EF92FF9241
:10775000CF93DF936B017C016FB7F894F999FECF5B
:10776000C60123E0F60120935700E89507B600FC18
:10777000FDCFEA01C058DF4FDA0131E0FC01E41B24
:10778000F50BAF012C91FA01EA0FFB1F11968C91BA
:10779000119790E0982F8827820F911D0C0130934C
:1077A0005700E89511241296AC17BD0759F785E0EC
:1077B000F60180935700E89507B600FCFDCF81E104
:1077C00080935700E8956FBFDF91CF91FF90EF90C6
:1077D000DF90CF9008954FB7F894019686179707DA
:1077E000C8F4FC01F695FE2FEE27F795E79533E0F8
:1077F00021E1F999FECF30935700E89507B600FCD8
:10780000FDCF20935700E8950196E058FF4F681789
:10781000790779F74FBF7894089583FD02C098E007
:1078200001C098E28770892B98E10FB6F894A8956B
:10783000909360000FBE809360000895A89508950E
:10784000FB01DC0102C001900D9241505040D8F77D
:107850000895DC01CB01FC01F999FECF06C0F2BD11
:10786000E1BDF89A319600B40D9241505040B8F7FE
:107870000895DC01A40FB51F4150504040F0CB01EA
:10788000840F951F2E9105D041505040D8F7089590
:10789000262FF999FECF92BD81BDF89A019700B4C9
:1078A000021639F01FBA20BD0FB6F894FA9AF99A69
:0878B0000FBE0895F894FFCF0C
:1078B800411C601A60126010600A60046000600376
:0C78C8000B0F7002010103000001010021
:040000030000700089
:00000001FF
