:1000000033C000004CC000004AC0000048C00000DF
:1000100046C0000044C0000042C0000040C00000D4
:100020003EC000003CC000003AC0000038C00000E4
:1000300036C0000034C0000032C0000030C00000F4
:100040002EC000002CC0000044C0000028C00000EA
:1000500034C0000024C0000022C0000020C0000006
:100060001EC000001CC0000011241FBECFEFD8E04E
:10007000DEBFCDBF12E0A0E0B1E0E4E3F2E002C0F9
:1000800005900D92A836B107D9F722E0A8E6B2E0B4
:1000900001C01D92A439B207E1F702D0C9C0B0CFA8
:1000A00040E063E084E050D08AE09FD08DE09DD0B6
:1000B00061E081E092E0A1D0FFCF1F920F920FB6D6
:1000C0000F921124109268020F900FBE0F901F9094
:1000D00018951F920F920FB60F9211248F939F9332
:1000E000EF93FF938091C0008C7191F0E0ECF0E011
:1000F00080818C7190E095958795959587958093F3
:10010000690286E080936B028081837E808313C0C6
:1001100082E080936B02E0916A0281E08E0F80930F
:100120006A029091C600F0E0E459FD4F9083883256
:1001300010F010926A02FF91EF919F918F910F90B2
:100140000FBE0F901F90189591E0873008F490E053
:10015000911145C091E0673008F490E091113FC0E3
:1001600010926A021092680210926B02E1ECF0E0C9
:10017000908198619083A2ECB0E09C9196609C93F2
:10018000908190689083908190649083000070E0EB
:10019000FB01EE0FFF1FE60FF71FEE0FFF1FE80F2B
:1001A000F11DEE0FFF1FED5EFD4F808191818F3FAE
:1001B0002FEF9207B1F08093C400413039F4E2ECA4
:1001C000F0E080818062808382E00895423059F4BB
:1001D000E2ECF0E080818063808382E0089580E03B
:1001E000089581E0089582E008958093C600E0ECD0
:1001F000F0E0808185FFFDCF08951F93CF93DF93BB
:10020000EC01162F892B51F08881882339F0219633
:10021000ECDF209719F089918111FACF112321F099
:100220008AE0E3DF8DE0E1DFDF91CF911F91089558
:04023000F894FFCF70
:1002340045786563757465204D4F44455F4E4F5254
:100244004D414C5F4D4F4445004578656375746579
:10025400204D4F44455F50574D0045786563757494
:1002640065204D4F44455F464153545F50574D0000
:1002740045786563757465205345545F4F56465FF2
:10028400494E540045786563757465204745545F4D
:100294004F56465F494E5400457865637574652032
:1002A4005345545F4F434D505F494E540045786564
:1002B40063757465204745545F4F434D505F494E05
:1002C40054004578656375746520434C4541525F1D
:1002D4004F56465F494E545F464C4147004578654A
:1002E40063757465204745545F4F56465F494E54C5
:1002F4005F464C4147004578656375746520434CFF
:100304004541525F4F434D505F494E545F464C4107
:10031400470045787065637465642076616C756523
:100324003A00476F743A0050415353004641494CD8
:100334000054696D65722074657374696E67206515
:100344006E76000C00060001000000FFFFFFFF199D
:10035400000C00030001000000FFFF330019000837
:100364000003000100FFFF670033001000080003D2
:1003740000FFFFCF006700220010000700FFFF3BD3
:10038400001D00090004000000FFFF470023000BCC
:080394000005000200FFFF005C
:00000001FF
