:100000000C942A000C9447000C9447000C94470071
:100010000C9447000C9447000C9447000C94470044
:100020000C9447000C9447000C9447000C945D001E
:100030000C9447000C9451000C9447000C9447001A
:100040000C9447000C9447000C9447000C94470014
:100050000C94470011241FBECFE5D4E0DEBFCDBF16
:1000600010E0A0E6B0E0E8E6F1E002C005900D92F5
:10007000A036B107D9F720E0A0E6B0E001C01D929C
:10008000AB38B207E1F70E9449000C94B2000C941F
:10009000000087E60E94A30080E690E00E948100B5
:1000A000FBCF1F920F920FB60F9211241092740083
:1000B0000F900FBE0F901F9018951F920F920FB6C2
:1000C0000F9211248F939F93EF93FF9382E080937D
:1000D0007600E091750081E08E0F809375009CB1F1
:1000E000F0E0E958FF4F9083843110F010927500D2
:1000F000FF91EF919F918F910F900FBE0F901F90E6
:100100001895BC01F894809176008230C9F48091F2
:100110007500882381F090E0292F30E0F901E9583B
:10012000FF4F4081FB01E20FF31F40839F5F8091EF
:100130007500981788F3109275001092760001C030
:1001400080E07894089510927500109274001092D7
:10015000760092E09BB998ED9AB996E890BD89B97E
:0801600078940895F894FFCF94
:00000001FF
