S01400006C6561665F6E7266323430312E737265630C
S11300000C942A000C94C0030C9447000C944700F1
S11300100C9447000C9447000C9447000C94470040
S11300200C9447000C9447000C9447000C948204F1
S11300300C9447000C9476040C9447000C944700ED
S11300400C9447000C9447000C9447000C94470010
S11300500C94470011241FBECFE5D4E0DEBFCDBF12
S113006010E0A0E6B0E0E6E7F9E002C005900D92EA
S1130070A83AB107D9F720E0A8EAB0E001C01D9280
S1130080A23EB207E1F70E94D2000C94B9040C948A
S11300900000CF93DF93EC01892B59F088818823EA
S11300A041F021960E94B504209719F0899181119D
S11300B0F9CFDF91CF910895BF92CF92DF92EF9263
S11300C0FF920F931F93CF93DF93CDB7DEB78DE7E6
S11300D090E00E9449008091AE000E94B50481E83E
S11300E090E00E9449000F2EFFEACF2EF0E0DF2EB1
S11300F0F02D04EB10E00F2EFDECBF2EF02DF601D9
S1130100E1906F01EB9CF12C1124F694F694F69493
S1130110FB9C812D1124869586958695880F982FB2
S1130120990F990F890FFF2DF81B8F2F0E94B5048B
S1130130FF0C8F2D880F880FF80E8E2D8F190E94BB
S1130140B504C016D106D9F688E890E00E944900AB
S11301500F2EFBECCF2EF0E0DF2EF02DF801819175
S11301608F010E94B5040C151D05C1F78DE00E9496
S1130170B5048AE00E94B504DF91CF911F910F91DD
S1130180FF90EF90DF90CF90BF90089581E090E0D2
S11301909093A9008093A800089580E487B986E825
S11301A086B90895CF93DF93CDB7DEB72A970FB6FC
S11301B0F894DEBF0FBECDBF0E94CD000E94EE01B9
S11301C083E30E94A6048EE890E00E94490085E043
S11301D0E3E7F0E0DE01119601900D928A95E1F7D4
S11301E085E0E8E7F0E0DE01169601900D928A952D
S11301F0E1F741E0BE016F5F7F4F81E00E9458024A
S1130200CE0106960E94EF02EBEAF0E084EE8483CE
S1130210858386838783808763E081E00E94090366
S113022080E48ABF78941AEA8091A8009091A9008A
S1130230892B19F18BEA90E00E947E030E94AF03A0
S11302408DB79EB780970FB6F8949EBF0FBE8DBF33
S1130250ADB7BEB7119680E2EBEAF0E001900D92E3
S11302608A95E1F70E945C001092A9001092A80000
S11302700FB6F894DEBF0FBECDBF89E990E00E94AF
S113028049008DE00E94B5048AE00E94B5041093F1
S1130290B40060E08BEA90E00E9436030E94AF0352
S11302A09FEF24E38CE0915020408040E1F700C0B0
S11302B00000BACFC2988FEF0E947104C29A0895C9
S11302C00F931F93CF93DF938B01D42FC2988F7119
S11302D080620E947104C82F6D2FC8010E945F04C0
S11302E0C29A8C2FDF91CF911F910F910895809125
S11302F06D00882331F045E063E670E08AE00E94F7
S113030060010895EF92FF920F931F93CF937B01A7
S11303108A01C22FC2980E947104CC2369F001158E
S1130320110529F46C2FC7010E945F0405C04C2FEE
S1130330B801C7010E944904C29ACF911F910F913D
S1130340FF90EF9008950F931F93CF93DF93EB01EA
S1130350142F442369F0FB012FEF240F30E02F5FAB
S11303603F4F260F371F9FEF9193E217F307E1F7F3
S1130370C2988F710E947104082F412FBE0180E042
S113038090E00E944904C29A802FDF91CF911F917F
S11303900F910895CF93DF931F92CDB7DEB741E05D
S11303A0BE016F5F7F4F80E00E94A301898180FDC1
S11303B011C08160898341E0BE016F5F7F4F80E09F
S11303C00E94600186E58A95F1F700C086E58A956A
S11303D0F1F700C00F90DF91CF9108951F93CF9351
S11303E0DF931F92CDB7DEB71092AA00C398BB9AD1
S11303F0BA9A8A988BB780648BBF85B7826085BFB1
S113040087EF9AE20197F1F700C000000E943C04D4
S113041083E0898341E0BE016F5F7F4F0E946001EA
S113042085E1898341E0BE016F5F7F4F84E00E94D4
S1130430600110E7198341E0BE016F5F7F4F85E0E3
S11304400E94600189E0898341E0BE016F5F7F4FB4
S113045086E00E9460018FE0898341E0BE016F5F06
S11304607F4F80E00E946001198341E0BE016F5F0D
S11304707F4F87E00E94600120E040E050E060E0B0
S113048070E081EE0E94820120E040E050E060E0F4
S113049070E082EE0E9482018FEC97E00197F1F701
S11304A000C00000C39A0F90DF91CF911F9108956F
S11304B0CF92DF92EF92FF920F931F93CF93DF932C
S11304C01F92CDB7DEB7863008F07FC0811116C009
S11304D0DB019C91E3E6F0E0908311969C911197E7
S11304E0918312969C911297928313969C911397E1
S11304F0938314969C91948395E005C0823010F404
S113050095E001C091E0042F182F492F8AE0810F54
S11305100E94600141E0BE016F5F7F4F81E00E9455
S1130520A301C12ED12C81E090E07C01012E02C0F8
S1130530EE0CFF1C0A94E2F789818E29898341E03D
S1130540BE016F5F7F4F81E00E946001011109C00D
S113055022C041E0BE016F5F7F4F82E00E946001D4
S113056034C080E2898341E0BE016F5F7F4F81E147
S1130570810F0E9460018981F601E359FF4F808356
S113058041E0BE016F5F7F4F82E00E94A301898139
S1130590E82AE982DECF198241E0BE016F5F7F4F16
S11305A081E1810F0E9460018981F601E359FF4FC7
S11305B0808341E0BE016F5F7F4F82E00E94A30110
S11305C0E0948981E822E982C4CF0F90DF91CF9132
S11305D01F910F91FF90EF90DF90CF900895FC0151
S11305E08081A8E6B0E08C93818111968C93119759
S11305F0828112968C931297838113968C9313970E
S1130600848114968C9345E0BF0180E10E946001CF
S113061008950F931F93CF93DF931F92CDB7DEB747
S11306206430F0F48230E0F4162F082F41E0BE016C
S11306306F5F7F4F86E00E94A30189818660612FEE
S1130640660F6823002319F06860698302C0677F1E
S1130650698341E0BE016F5F7F4F86E00E946001C5
S11306600F90DF91CF911F910F910895EF92FF9218
S11306701F93CF93DF931F92CDB7DEB77C01162F64
S113068081E08093AA00C39841E0BE016F5F7F4F71
S113069080E00E94A301898180FF11C08E7F89833D
S11306A041E0BE016F5F7F4F80E00E94600186E5FC
S11306B08A95F1F700C086E58A95F1F700C045E018
S11306C068E670E08AE00E94600120E240E050E0C9
S11306D0B70180EA0E948201C39A111107C0809178
S11306E0AA008111FCCF8091600001C081E00F90CD
S11306F0DF91CF911F91FF90EF900895CF93DF93F7
S1130700EC011092AA00C3980E945A018E7090E0E6
S1130710959587959C013327F901E359FF4F408153
S1130720413290F4873091F0F901E359FF4F208171
S1130730AE01BE0181E60E9482010E945A018E70C0
S11307408E3031F484E005C080E003C082E001C053
S113075083E0C39A1092AA00DF91CF91089520E01C
S113076040E050E060E070E081EE0E94820120E011
S113077040E050E060E070E082EE0E948201089563
S11307801F920F920FB60F9211242F933F934F9302
S11307905F936F937F938F939F93AF93BF93EF93E5
S11307A0FF93CF93DF931F92CDB7DEB780E48ABF68
S11307B0C3980E945A01898386FF04C08E7086956F
S11307C00E94C600898185FF1DC01092AA000E9464
S11307D077010E94CA018091610090916200880FA4
S11307E0991F9093620080936100809161009091C1
S11307F062008160909362008093610081E0809345
S113080060001CC084FF1AC020E040E050E060E0BB
S113081070E081EE0E9482011092AA000E9477018A
S11308200E94CA018091610090916200880F991F13
S113083090936200809361001092600080E7898346
S113084041E0BE016F5F7F4F87E00E946001C39A61
S11308500F90DF91CF91FF91EF91BF91AF919F9155
S11308608F917F916F915F914F913F912F910F9055
S11308700FBE0F901F90189587B38F7087BB87B3F7
S1130880806B87BBC49A80E58DB981E08EB9C4982A
S11308900895442399F0FC01A62FB72F4150242F2B
S11308A030E02F5F3F4F280F391F91919FB9779BFD
S11308B0FECF9FB19D93E217F307B9F7089566231E
S11308C079F0FC016150262F30E02F5F3F4F280F55
S11308D0391F91919FB9779BFECFE217F307C9F7B0
S11308E008958FB9779BFECF8FB108951F920F9211
S11308F00FB60F9211241092CB000F900FBE0F90E1
S11309001F9018951F920F920FB60F9211248F9378
S11309109F93EF93FF9382E08093CD00E091CC000E
S113092081E08E0F8093CC009CB1F0E0E253FF4F46
S11309309083843110F01092CC00FF91EF919F913D
S11309408F910F900FBE0F901F9018951092CC00AE
S11309501092CB001092CD0092E09BB998ED9AB919
S113096096E890BD89B9789408958CB95D9BFECFC3
S10909700895F894FFCF86
S113097601FF00E7E7E7E7E7E7E7E7E7E720200027
S1130986000000E4E4E4E4E4E0703501A149443AFB
S1130996003A414444523A003A4D53473A005261B0
S11309A664696F20546573740041434B2054696D28
S10B09B66520746573740000F0
S9030000FC
