S01400006C6561665F6E7266323430312E737265630C
S11300000C942A000C94B5030C9447000C944700FC
S11300100C9447000C9447000C9447000C94470040
S11300200C9447000C9447000C9447000C947704FC
S11300300C9447000C946B040C9447000C944700F8
S11300400C9447000C9447000C9447000C94470010
S11300500C94470011241FBECFE5D4E0DEBFCDBF12
S113006010E0A0E6B0E0E0E6F9E002C005900D92F1
S1130070AA39B107D9F720E0AAE9B0E001C01D927E
S1130080A43DB207E1F70E94D2000C94AE040C9494
S11300900000CF93DF93EC01892B59F088818823EA
S11300A041F021960E94AA04209719F089918111A8
S11300B0F9CFDF91CF910895BF92CF92DF92EF9263
S11300C0FF920F931F93CF93DF93CDB7DEB78DE7E6
S11300D090E00E9449008091A0000E94AA0481E857
S11300E090E00E9449000F2EF1EACF2EF0E0DF2EBF
S11300F0F02D06EA10E00F2EFDECBF2EF02DF601D8
S1130100E1906F01EB9CF12C1124F694F694F69493
S1130110FB9C812D1124869586958695880F982FB2
S1130120990F990F890FFF2DF81B8F2F0E94AA0496
S1130130FF0C8F2D880F880FF80E8E2D8F190E94BB
S1130140AA04C016D106D9F688E890E00E944900B6
S11301500F2EFDEBCF2EF0E0DF2EF02DF801819174
S11301608F010E94AA040C151D05C1F78DE00E94A1
S1130170AA048AE00E94AA04DF91CF911F910F91F3
S1130180FF90EF90DF90CF90BF90089581E090E0D2
S113019090939B0080939A00089580E487B986E841
S11301A086B90895CF93DF93CDB7DEB72A970FB6FC
S11301B0F894DEBF0FBECDBF0E94CD000E94E301C4
S11301C083E30E949B048EE890E00E94490085E04E
S11301D0E3E7F0E0DE01119601900D928A95E1F7D4
S11301E085E0E8E7F0E0DE01169601900D928A952D
S11301F0E1F741E0BE016A5F7F4F80E00E944D025B
S1130200CE0101960E94E402EDE9F0E088E98483DE
S113021086E7858384E5868382E3878381E180871B
S113022063E081E00E94FE0280E48ABF78941BEBC5
S113023080919A0090919B00892BD1F38DE990E0F5
S11302400E9473030E94A4038DB79EB780970FB6D4
S1130250F8949EBF0FBE8DBFADB7BEB7119680E2B6
S1130260EDE9F0E001900D928A95E1F70E945C00BF
S113027010929B0010929A000FB6F894DEBF0FBE46
S1130280CDBF8091A6008A3A99F61093A60060E04B
S11302908DE990E00E942B030E94A403C9CFC29869
S11302A08FEF0E946604C29A08950F931F93CF9311
S11302B0DF938B01D42FC2988F7180620E946604F1
S11302C0C82F6D2FC8010E945404C29A8C2FDF914D
S11302D0CF911F910F91089580916D00882331F083
S11302E045E063E670E08AE00E9455010895EF92CC
S11302F0FF920F931F93CF937B018A01C22FC29861
S11303000E946604CC2369F00115110529F46C2FB1
S1130310C7010E94540405C04C2FB801C7010E94B4
S11303203E04C29ACF911F910F91FF90EF900895D0
S11303300F931F93CF93DF93EB01142F442369F0A2
S1130340FB012FEF240F30E02F5F3F4F260F371FA5
S11303509FEF9193E217F307E1F7C2988F710E9420
S11303606604082F412FBE0180E090E00E943E0405
S1130370C29A802FDF91CF911F910F910895CF934F
S1130380DF931F92CDB7DEB741E0BE016F5F7F4FB1
S113039080E00E949801898180FD11C08160898379
S11303A041E0BE016F5F7F4F80E00E94550186E50A
S11303B08A95F1F700C086E58A95F1F700C00F90A1
S11303C0DF91CF9108951F93CF93DF931F92CDB701
S11303D0DEB710929C00C398BB9ABA9A8A988BB7DE
S11303E080648BBF85B7826085BF87EF9AE20197EF
S11303F0F1F700C000000E94310483E0898341E0EA
S1130400BE016F5F7F4F0E94550185E1898341E002
S1130410BE016F5F7F4F84E00E94550110E719838E
S113042041E0BE016F5F7F4F85E00E94550189E086
S1130430898341E0BE016F5F7F4F86E00E945501D2
S11304408FE0898341E0BE016F5F7F4F80E00E94AF
S11304505501198341E0BE016F5F7F4F87E00E9421
S1130460550120E040E050E060E070E081EE0E9441
S1130470770120E040E050E060E070E082EE0E940E
S113048077018FEC97E00197F1F700C00000C39A61
S11304900F90DF91CF911F910895CF92DF92EF9249
S11304A0FF920F931F93CF93DF931F92CDB7DEB7C5
S11304B0863008F07FC0811116C0DB019C91E3E611
S11304C0F0E0908311969C911197918312969C91E0
S11304D01297928313969C911397938314969C91ED
S11304E0948395E005C0823010F495E001C091E05A
S11304F0042F182F492F8AE0810F0E94550141E0F3
S1130500BE016F5F7F4F81E00E949801C12ED12C04
S113051081E090E07C01012E02C0EE0CFF1C0A94E5
S1130520E2F789818E29898341E0BE016F5F7F4FA5
S113053081E00E945501011109C022C041E0BE01C1
S11305406F5F7F4F82E00E94550134C080E289834F
S113055041E0BE016F5F7F4F81E1810F0E94550131
S11305608981F601E359FF4F808341E0BE016F5F4B
S11305707F4F82E00E9498018981E82AE982DECFD8
S1130580198241E0BE016F5F7F4F81E1810F0E94BC
S113059055018981F601E359FF4F808341E0BE0193
S11305A06F5F7F4F82E00E949801E0948981E82286
S11305B0E982C4CF0F90DF91CF911F910F91FF90EB
S11305C0EF90DF90CF900895FC018081A8E6B0E021
S11305D08C93818111968C931197828112968C93BE
S11305E01297838113968C931397848114968C931A
S11305F045E0BF0180E10E94550108950F931F93C8
S1130600CF93DF931F92CDB7DEB76430F0F482301E
S1130610E0F4162F082F41E0BE016F5F7F4F86E0A4
S11306200E94980189818660612F660F68230023E8
S113063019F06860698302C0677F698341E0BE0185
S11306406F5F7F4F86E00E9455010F90DF91CF913D
S11306501F910F910895EF92FF921F93CF93DF9311
S11306601F92CDB7DEB77C01162F81E080939C00EA
S1130670C39841E0BE016F5F7F4F80E00E94980104
S1130680898180FF11C08E7F898341E0BE016F5F45
S11306907F4F80E00E94550186E58A95F1F700C0FE
S11306A086E58A95F1F700C045E068E670E08AE0E7
S11306B00E94550120E240E050E0B70180EA0E9428
S11306C07701C39A111107C080919C008111FCCF5E
S11306D08091600001C081E00F90DF91CF911F9164
S11306E0FF90EF900895CF93DF93EC0110929C005C
S11306F0C3980E944F018E7090E0959587959C0158
S11307003327F901E359FF4F4081413290F4873098
S113071091F0F901E359FF4F2081AE01BE0181E65A
S11307200E9477010E944F018E708E3031F484E074
S113073005C080E003C082E001C083E0C39A109248
S11307409C00DF91CF91089520E040E050E060E00C
S113075070E081EE0E94770120E040E050E060E02C
S113076070E082EE0E94770108951F920F920FB6F7
S11307700F9211242F933F934F935F936F937F9323
S11307808F939F93AF93BF93EF93FF93CF93DF9395
S11307901F92CDB7DEB780E48ABFC3980E944F0191
S11307A0898386FF04C08E7086950E94C600898165
S11307B085FF1DC010929C000E946C010E94BF0125
S11307C08091610090916200880F991F909362005C
S11307D080936100809161009091620081609093A8
S11307E062008093610081E0809360001CC084FFFC
S11307F01AC020E040E050E060E070E081EE0E942A
S1130800770110929C000E946C010E94BF018091AC
S1130810610090916200880F991F90936200809309
S113082061001092600080E7898341E0BE016F5F40
S11308307F4F87E00E945501C39A0F90DF91CF91BB
S1130840FF91EF91BF91AF919F918F917F916F91A4
S11308505F914F913F912F910F900FBE0F901F907A
S1130860189587B38F7087BB87B3806B87BBC49A97
S113087080E58DB981E08EB9C4980895442399F038
S1130880FC01A62FB72F4150242F30E02F5F3F4F9C
S1130890280F391F91919FB9779BFECF9FB19D93EC
S11308A0E217F307B9F70895662379F0FC01615064
S11308B0262F30E02F5F3F4F280F391F91919FB9AA
S11308C0779BFECFE217F307C9F708958FB9779B9B
S11308D0FECF8FB108951F920F920FB60F9211247D
S11308E01092BD000F900FBE0F901F9018951F928D
S11308F00F920FB60F9211248F939F93EF93FF9350
S113090082E08093BF00E091BE0081E08E0F80936F
S1130910BE009CB1F0E0E054FF4F9083843110F0AE
S11309201092BE00FF91EF919F918F910F900FBE97
S11309300F901F9018951092BE001092BD00109257
S1130940BF0092E09BB998ED9AB996E890BD89B939
S1130950789408958CB95D9BFECF0895F894FFCFE9
S113096001FF00E7E7E7E7E7E7E7E7E7E72020003D
S1130970000000E4E4E4E4E4987654321149443A93
S1130980003A414444523A003A4D53473A005261C6
S10D099064696F205465737400005D
S9030000FC
