:100000003AC0000054C0000052C0000050C00000C0
:100010004EC000004CC000004AC0000048C00000B4
:1000200046C00000DCC1000042C0000040C000002B
:100030003EC000003CC00000B9C3000038C0000052
:1000400036C0000034C000001BC1000030C00000FA
:100050000BC100002CC000002AC0000028C0000016
:1000600026C0000024C00000EA0603071C07300772
:1000700049075C07750711241FBECFEFD8E0DEBF2C
:10008000CDBF11E0A0E0B1E0ECE7F5E102C00590E2
:100090000D92AA37B107D9F721E0AAE7B1E001C074
:1000A0001D92AC3BB207E1F703D00C94BC0AA8CF79
:1000B000CF93DF93CDB7DEB7C855D1090FB6F8940B
:1000C000DEBF0FBECDBF579AAFD140E063E080E006
:1000D00012D161E082E091E067D10F2EFCE07F2E2B
:1000E000F02DCE0101966C01FC01272D11922A956D
:1000F000E9F77894D3D131D32D873E874F87588B3A
:10010000698B7A8B8BE59FE2E4E081509040E04080
:10011000E1F700C000C021D32B8B3C8B4D8B5E8B55
:100120006F8B788FE22EF32E042F152F262F372F6B
:100130004D855E856F85788989899A8985D29F9357
:100140008F937F936F9307E111E01F930F93DF92DB
:10015000CF923AD761E0C60127D12B893C894D89DE
:100160005E896F89788DCE0149969ED14E01F9E264
:100170008F0E911CF401272D11922A95E9F75E014B
:1001800085E3A80EB11CF501272D11922A95E9F7F8
:100190006E0181E4C80ED11CF601272D11922A951B
:1001A000E9F77E018DE4E80EF11CF70111927A94D3
:1001B000E9F78C8D8F938B8D8F938A8D8F93898D9B
:1001C0008F931F930F939F928F92FED688A58F9344
:1001D0008FA18F938EA18F938DA18F931F930F93D8
:1001E000BF92AF92F1D688A18F938F8D8F938E8D12
:1001F0008F938D8D8F931F930F93DF92CF92E4D6C1
:100200000FB6F894DEBF0FBECDBF8CA18F938BA12C
:100210008F938AA18F9389A18F931F930F93FF923E
:10022000EF92D2D661E0C401BFD061E0C501BCD07D
:1002300061E0C601B9D061E0C701B6D061E08BE1F1
:1002400091E0B2D00FB6F894DEBF0FBECDBFFFEF86
:100250002FEB81E2F15020408040E1F700C0000028
:100260008BB180588BB9F3CF1F920F920FB60F92BC
:10027000112410928D010F900FBE0F901F901895B2
:100280001F920F920FB60F9211248F939F93EF93AB
:10029000FF938091C0008C7191F0E0ECF0E08081E0
:1002A0008C7190E0959587959595879580938E01B3
:1002B00086E0809390018081837E808313C082E0FA
:1002C00080939001E0918F0181E08E0F80938F01E8
:1002D0009091C600F0E0EF56FE4F9083883210F008
:1002E00010928F01FF91EF919F918F910F900FBE10
:1002F0000F901F90189591E0873008F490E09111CD
:1003000045C091E0673008F490E091113FC0109231
:100310008F0110928D0110929001E1ECF0E090813C
:1003200098619083A2ECB0E09C9196609C93908140
:1003300090689083908190649083000070E0FB014E
:10034000EE0FFF1FE60FF71FEE0FFF1FE80FF11D67
:10035000EE0FFF1FEB5DFE4F808191818F3F2FEFEE
:100360009207B1F08093C400413039F4E2ECF0E040
:1003700080818062808382E00895423059F4E2EC0B
:10038000F0E080818063808382E0089580E00895BA
:1003900081E0089582E008958093C600E0ECF0E0EB
:1003A000808185FFFDCF08951F93CF93DF93EC01EC
:1003B000162F892B51F08881882339F02196ECDFA4
:1003C000209719F089918111FACF112321F08AE049
:1003D000E3DF8DE0E1DFDF91CF911F9108951F9260
:1003E0000F920FB60F9211248F939F93AF93BF93E9
:1003F00080917A0190917B01A0917C01B0917D0167
:100400000196A11DB11D80937A0190937B01A09369
:100410007C01B0937D01BF91AF919F918F910F901F
:100420000FBE0F901F901895CF92DF92EF92FF9220
:100430000F931F93CF93DF93CDB7DEB72C970FB6F3
:10044000F894DEBF0FBECDBF80E081D5E090000103
:100450001D821C829FE7192F198618867C85716082
:100460000F2EF3E0CF2EF02DD12CF12C0D8120E0BA
:1004700030E04985582F62E080910101CAD12C9665
:100480000FB6F894DEBF0FBECDBFDF91CF911F91A5
:100490000F91FF90EF90DF90CF90089560E070E0B3
:1004A000809101017FC408954F925F926F927F9275
:1004B0008F929F92AF92BF92CF92DF92EF92FF9274
:1004C0000F931F93CF93DF9300D000D000D0CDB710
:1004D000DEB78C0129833A834B835C836D837E83F3
:1004E0004D815E819A01A3E4B8E05FD5281B390BEA
:1004F00036952795820F931F929582958F70892745
:100500009F7089276C01E12CF12C89809A80AB8047
:10051000BC80880C991CAA1CBB1C880C991CAA1CAA
:10052000BB1C880C991CAA1CBB1C880C991CAA1CFF
:10053000BB1C880C991CAA1CBB1C880C991CAA1CEF
:10054000BB1C880C991CAA1CBB1C6FE1689F900106
:10055000699F300D1124CA01821B930B9C01AFEFE0
:10056000BFE723D5680D791D8A1D9B1D0F2EF8EE60
:100570004F2EF3E05F2E612C712CF02DA301920120
:10058000ECD4D701C601880F991FAA1FBB1F880F83
:10059000991FAA1FBB1F880F991FAA1FBB1F880F77
:1005A000991FAA1FBB1FBC01CD01620F731F841FBF
:1005B000951FA3019201D1D44B015C01C20ED31E41
:1005C000E41EF51EC701B6012CE330E040E050E028
:1005D000C4D42B013C01F80180829182A282B382B3
:1005E000CA01B9012CE330E040E050E0B6D4F80194
:1005F0006483758386839783C701B60120E13EE05B
:1006000040E050E0AAD4F801208731874287538721
:100610004486558666867786C80126960FB6F89476
:10062000DEBF0FBECDBFDF91CF911F910F91FF9025
:10063000EF90DF90CF90BF90AF909F908F907F9082
:100640006F905F904F900895CF92DF92EF92FF925C
:100650000F931F93CF93DF93CDB7DEB72C970FB6D1
:10066000F894DEBF0FBECDBF49835A836B837C8372
:100670008D839E83EF82F88609871A872B873C87B4
:10068000CF80D884E984FA84CC0CDD1CEE1CFF1CDE
:10069000CC0CDD1CEE1CFF1CCC0CDD1CEE1CFF1C6E
:1006A000CC0CDD1CEE1CFF1CCC0CDD1CEE1CFF1C5E
:1006B000CC0CDD1CEE1CFF1CCC0CDD1CEE1CFF1C4E
:1006C00084EFC80E81E0D81EE11CF11C89819A815B
:1006D000AB81BC81880F991FAA1FBB1F880F991F70
:1006E000AA1FBB1F880F991FAA1FBB1F880F991F26
:1006F000AA1FBB1F880F991FAA1FBB1F880F991F16
:10070000AA1FBB1F880F991FAA1FBB1FC81AD90A8F
:10071000EA0AFB0A2B853C858D819E81281B390BBB
:10072000AFEFBFE742D46C0D7D1D8E1D9F1D28EEDF
:1007300033E040E050E011D4CA01B9012C960FB665
:10074000F894DEBF0FBECDBFDF91CF911F910F9107
:10075000FF90EF90DF90CF9008950F931F93CF936A
:10076000DF9300D000D000D0CDB7DEB710917A0172
:1007700000917B0180910101D5D3A0E0B0E0898395
:100780009A83AB83BC83282F3A814B815C81612F94
:10079000702F80E090E026960FB6F894DEBF0FBE73
:1007A000CDBFDF91CF911F910F9108951F920F92AE
:1007B0000FB60F9211242F933F934F935F936F9334
:1007C0007F938F939F93AF93BF93EF93FF93E1E852
:1007D000F1E080818F5F808390918401891308C04C
:1007E00010928101E0918701F091880180E00995E4
:1007F000FF91EF91BF91AF919F918F917F916F91F9
:100800005F914F913F912F910F900FBE0F901F90CE
:100810001895CF92DF92EF92FF920F931F93CF9391
:10082000DF93CDB7DEB72C970FB6F894DEBF0FBEBF
:10083000CDBF9C2DC982DA82EB82FC820D831E83A0
:100840002F83388749875A876B877C874C815D81E6
:100850000E811F81913061F138F0923009F45EC051
:10086000933009F441C076C0813059F4E0E8F0E0FB
:1008700090819C7F9083E1E8F0E09081977E908367
:100880003FC2811107C094B59C7F94BD95B5977FF9
:1008900095BDF5C1823009F01EC2E0EBF0E0908119
:1008A0009C7F9083E1EBF0E09081977F9083FDC186
:1008B000813009F425C2811108C094B59C7F9160F4
:1008C00094BD95B5977F95BDDAC1823009F003C21A
:1008D000E0EBF0E090819C7F91609083E1EBF0E0B1
:1008E0009081977F9083E1C1813009F409C2811121
:1008F00007C094B5936094BD95B5977F95BDBFC172
:10090000823009F0E8C1E0EBF0E0908193609083E1
:10091000E1EBF0E09081977F9083C7C1813009F4CB
:10092000EFC1811108C094B59C7F926094BD95B5CC
:10093000977F95BDA4C1823009F0CDC1E0EBF0E016
:1009400090819C7F92609083E1EBF0E09081977FB3
:100950009083ABC19A81913009F49DC030F0923000
:1009600009F463C0933089F1CCC0611117C08130A4
:1009700031F4E0E8F0E090819F739083E8C1811149
:1009800004C094B59F7394BDC7C1823009F0D6C12D
:10099000E0EBF0E090819F739083C7C1813031F428
:1009A000E0E8F0E090819F7C9083D1C1811104C088
:1009B00094B59F7C94BDB0C1823009F0BFC1E0EB1B
:1009C000F0E090819F7C9083B0C1611117C08130AD
:1009D00031F4E0E8F0E09081906C9083B8C181112F
:1009E00004C094B5906C94BD97C1823009F0A6C143
:1009F000E0EBF0E09081906C908397C1813031F40E
:100A0000E0E8F0E0908190639083A1C1811104C07F
:100A100094B5906394BD80C1823009F08FC1E0EB42
:100A2000F0E090819063908380C161111AC08130A1
:100A300039F4E0E8F0E090819F739068908387C17B
:100A4000811105C094B59F73906894BD65C18230D3
:100A500009F074C1E0EBF0E090819F73906890839F
:100A600064C1813039F4909181009F7C90629093B1
:100A700080006DC1811105C094B59F7C906294BDCA
:100A80004BC1823009F05AC1E0EBF0E090819F7CCD
:100A9000906290834AC161111AC0813039F4E0E854
:100AA000F0E090819F739064908351C1811105C0E3
:100AB00094B59F73906494BD2FC1823009F03EC1FC
:100AC000E0EBF0E090819F73906490832EC18130C1
:100AD00039F4909181009F7C90619093800037C1A0
:100AE000811105C094B59F7C906194BD15C1823081
:100AF00009F024C1E0EBF0E090819F7C906190834D
:100B000014C1E82FF0E09F0127543E4F9B81D9018B
:100B10009C93813039F421E830E0D9019C91987F91
:100B20009C930EC0811104C095B5987F95BD08C0F7
:100B3000823031F421EB30E0D9019C91987F9C9375
:100B40009C8591FF3BC061111CC0813039F42FE6B8
:100B500030E0D9019C9192609C9309C1811107C03A
:100B60002EE630E0D9019C9192609C9304C18230C2
:100B700009F0F6C020E730E0D9019C9192609C9387
:100B8000F2C06130D9F4813039F42FE630E0D90178
:100B90009C9194609C93EBC0811107C02EE630E0DD
:100BA000D9019C9194609C93E6C0823039F420E78F
:100BB00030E0D9019C9194609C93D5C090FF1CC0FB
:100BC000813039F42FE630E0D9019C9191609C93FB
:100BD00015C0811107C02EE630E0D9019C919160CB
:100BE0009C9316C0823009F0CAC020E730E0D901DA
:100BF0009C9191609C9313C0813041F45527509390
:100C000085004093840061111BC00EC0811104C097
:100C100046BD662381F014C0823009F0B0C0409315
:100C2000B200662351F00CC0D801BB27B0938900F5
:100C3000A0938800A4C007BDA2C00093B3009FC0CA
:100C4000613009F09CC0813039F4D801BB27B093E2
:100C50008B00A0938A0093C0811102C008BD8FC091
:100C6000823009F08CC00093B40089C0E82FF0E016
:100C70009F0127543E4F9B81D9019C9355CF9A8168
:100C8000913009F408CF08F470CE923009F4CDCE3B
:100C9000933009F49ACEEACFE82FF0E09F01275471
:100CA0003E4F9B81D9019C9345CF9A81913009F4A5
:100CB000F2CE08F45ACE923009F4B7CE933009F44C
:100CC00084CEEACFE82FF0E09F0127543E4F9B816E
:100CD000D9019C9335CF9A81913009F4DCCE08F488
:100CE00044CE923009F4A1CE933061F76ECEE82F56
:100CF000F0E09F0127543E4F9B81D9019C930BCF7D
:100D00009A81913009F4C7CE08F42FCE923009F4BD
:100D10008CCE933061F759CEE82FF0E09F01275435
:100D20003E4F9B81D9019C93FFCEE82FF0E09F01BD
:100D300027543E4F9B81D9019C93FCCEE82FF0E0D5
:100D40009F0127543E4F9B81D9019C93F9CEE82FF8
:100D5000F0E09F0127543E4F9B81D9019C93DBCE4D
:100D600090FF4ACF0CC09C8590FF59CF3ECF9C8509
:100D700090FD28CF43CF9C8590FF4ACF2CCFE258DF
:100D8000FE4F81E080832C960FB6F894DEBF0FBE35
:100D9000CDBFDF91CF911F910F91FF90EF90DF902A
:100DA000CF900895282F30E0F901E258FE4F90814E
:100DB0009150923008F0B5C0F901E754FE4FE08140
:100DC0004E2F50E04730510508F0A6C0FA01EC5C08
:100DD000FF4FE5C0823039F4E1EBF0E08081887F9D
:100DE0008160808399C0813039F4E1E8F0E080814E
:100DF000887F8160808390C081118EC085B5887F97
:100E0000816085BD89C0823039F4E1EBF0E08081FA
:100E1000887F8260808380C0813039F4E1E8F0E02F
:100E20008081887F8260808377C0811175C085B59D
:100E3000887F826085BD70C0813009F46DC08111EA
:100E400005C085B5887F836085BD66C0823009F0A6
:100E500063C0E1EBF0E08081887F836080835CC0C9
:100E6000823039F4E1EBF0E08081887F8460808318
:100E700053C0813039F4E1E8F0E08081887F8360FD
:100E800080834AC0811148C085B5887F836085BD55
:100E900043C0813009F440C0811105C085B5887F09
:100EA000836085BD39C08230B9F5E1EBF0E0808127
:100EB000887F8360808330C0823039F4E1EBF0E0DA
:100EC0008081887F8660808327C0813039F4E1E8A3
:100ED000F0E08081887F846080831EC081111CC007
:100EE00085B5887F846085BD17C0823031F4E1EB21
:100EF000F0E08081876080830FC0813039F4E1E8C1
:100F0000F0E08081887F8560808306C0811104C005
:100F100085B5887F856085BDF901E258FE4F83E085
:100F200080830895813029F4809184009091850018
:100F30000895811103C086B590E00895823021F4B0
:100F40008091B20090E0089580E090E00895982F9D
:100F50009D7F81E009F480E00895A1E21A2EAA1B8A
:100F6000BB1BFD010DC0AA1FBB1FEE1FFF1FA21759
:100F7000B307E407F50720F0A21BB30BE40BF50B56
:100F8000661F771F881F991F1A9469F760957095DF
:100F9000809590959B01AC01BD01CF010895EE0FA6
:100FA000FF1F0590F491E02D0994A29FB001B39F1B
:100FB000C001A39F700D811D1124911DB29F700D62
:100FC000811D1124911D0895AEE0B0E0E9EEF7E037
:100FD000AAC20D891E8986E08C831A8309838FEF4C
:100FE0009FE79E838D83AE01475E5F4F6F89788D4B
:100FF000CE01019608D0EF81F885E00FF11F108235
:101000002E96E4E0ACC2ABE0B0E0E8E0F8E07DC2F0
:101010006C017B018A01FC0117821682838181FFAA
:10102000BFC1CE0101963C01F6019381F70193FD0A
:10103000859193FF81917F01882309F4ADC18532A9
:1010400039F493FD859193FF81917F01853221F4DD
:10105000B60190E0C0D1E8CF912C212C312CFFE1DA
:10106000F315D8F08B3279F038F4803279F083328E
:10107000A1F4232D20611DC08D3261F0803369F40D
:10108000232D216016C0832D8260382EE32DE4606D
:101090003E2E2AC0F32DF8601DC037FC2DC020ED78
:1010A000280F2A3040F08E32B9F436FC75C1232D5A
:1010B0002064322E19C036FE06C08AE0989E200DAC
:1010C0001124922E11C0EAE02E9E200D1124222E12
:1010D000F32DF0623F2E08C08C3621F4832D8068FA
:1010E000382E02C0883641F4F70193FD859193FFB5
:1010F00081917F018111B3CF982F9F7D95549330BB
:1011000028F40C5F1F4F9FE399830DC0833631F0A5
:10111000833771F0833509F055C020C0F801808114
:1011200089830E5F1F4F88248394912C530112C032
:101130002801F2E04F0E511CF801A080B18036FE6C
:1011400003C0692D70E002C06FEF7FEFC50138D199
:101150004C018201F32DFF773F2E15C0280122E0BC
:10116000420E511CF801A080B18036FE03C0692DEB
:1011700070E002C06FEF7FEFC50117D14C01F32D76
:10118000F0683F2E820133FC19C0822D90E0881652
:101190009906A0F4B60180E290E01DD12A94F5CF23
:1011A000F50137FC859137FE81915F01B60190E032
:1011B00012D121102A9421E0821A910881149104FD
:1011C00079F7E1C0843611F0893639F5F80137FE38
:1011D00007C060817181828193810C5F1F4F08C0BD
:1011E00060817181072E000C880B990B0E5F1F4FD9
:1011F000F32DFF763F2E97FF09C09095809570954F
:1012000061957F4F8F4F9F4FF0683F2E2AE030E06F
:10121000A3011DD1882E861844C0853731F4232DB3
:101220002F7EB22E2AE030E025C0932D997FB92E73
:101230008F36C1F018F4883579F0AEC0803719F0D8
:10124000883721F0A9C0E92FE061BE2EB4FE0DC0A1
:10125000FB2DF460BF2E09C034FE0AC0292F266082
:10126000B22E06C028E030E005C020E130E002C028
:1012700020E132E0F801B7FE07C060817181828110
:1012800093810C5F1F4F06C06081718180E090E008
:101290000E5F1F4FA301DBD0882E8618FB2DFF7732
:1012A0003F2E36FE0DC0232D2E7FA22E891458F41A
:1012B00034FE0BC032FC09C0832D8E7EA82E05C0E3
:1012C000B82CA32C03C0B82C01C0B92CA4FE0FC0AD
:1012D000FE01E80DF11D8081803321F49A2D997E65
:1012E000A92E09C0A2FE06C0B394B39404C08A2DEF
:1012F000867809F0B394A3FC10C0A0FE06C0B21417
:1013000080F4280C922C9B180DC0B21458F4B6012E
:1013100080E290E060D0B394F8CFB21418F42B18A8
:1013200002C0982C212CA4FE0FC0B60180E390E0EF
:1013300052D0A2FE16C0A1FC03C088E790E002C014
:1013400088E590E0B6010CC08A2D867851F0A1FEA8
:1013500002C08BE201C080E2A7FC8DE2B60190E002
:101360003AD0891430F4B60180E390E034D09A94F6
:10137000F8CF8A94F301E80DF11D8081B60190E069
:101380002AD08110F6CF222009F44ECEB60180E299
:1013900090E021D02A94F7CFF6018681978102C090
:1013A0008FEF9FEF2B96E2E1CCC0FC0105906150DE
:1013B00070400110D8F7809590958E0F9F1F08956B
:1013C000FC016150704001900110D8F78095909514
:1013D0008E0F9F1F08950F931F93CF93DF93FB01F1
:1013E000238121FD03C08FEF9FEF2CC022FF16C089
:1013F00046815781248135814217530744F4A081E7
:10140000B1819D012F5F3F4F318320838C932681D3
:1014100037812F5F3F4F3783268314C08B01EC0148
:10142000FB010084F185E02D0995892BE1F6D801B7
:1014300016968D919C911797019617969C938E9373
:101440001697CE01DF91CF911F910F910895FA0168
:10145000AA27283051F1203181F1E8946F936E7FF3
:101460006E5F7F4F8F4F9F4FAF4FB1E03ED0B4E0E4
:101470003CD0670F781F891F9A1FA11D680F791F25
:101480008A1F911DA11D6A0F711D811D911DA11D36
:1014900020D009F468943F912AE0269F1124301946
:1014A000305D3193DEF6CF010895462F4770405DE1
:1014B0004193B3E00FD0C9F7F6CF462F4F70405D90
:1014C0004A3318F0495D31FD4052419302D0A9F7EB
:1014D000EACFB4E0A6959795879577956795BA95E5
:1014E000C9F700976105710508959B01AC010A2EAB
:1014F00006945795479537952795BA95C9F7620F82
:10150000731F841F951FA01D08952F923F924F9225
:101510005F926F927F928F929F92AF92BF92CF9283
:10152000DF92EF92FF920F931F93CF93DF93CDB78C
:10153000DEB7CA1BDB0B0FB6F894DEBF0FBECDBF04
:1015400009942A88398848885F846E847D848C84D5
:101550009B84AA84B984C884DF80EE80FD800C81DE
:101560001B81AA81B981CE0FD11D0FB6F894DEBFC1
:0C1570000FBECDBFED010895F894FFCF31
:10157C00060254657374696E672073797374656DB4
:10158C002074696D657200256C7500546573742048
:10159C00646F6E65000C00060001000000FFFFFF89
:1015AC00FF19000C00030001000000FFFF330019BD
:1015BC0000080003000100FFFF6700330010000863
:1015CC00000300FFFFCF006700220010000700FFA0
:1015DC00FF3B001D00090004000000FFFF47002333
:0A15EC00000B0005000200FFFF00E5
:00000001FF
