:1000000055C000000C94590E7EC000007CC000005A
:100010007AC0000078C0000076C0000074C0000004
:1000200072C000007CC600006EC000006CC0000002
:100030006AC0000068C0000076C7000064C000000D
:1000400062C0000060C0000071C500005CC000001C
:1000500061C5000058C0000056C0000054C0000038
:1000600052C0000050C00000130122012B013401D6
:100070003D0146014C017201940194015F01EA02C5
:100080001E0352038404E10483058305830583056D
:100090008305830583058305830530024202A70A91
:1000A000C00AD90AED0A060B190B320B11241FBE28
:1000B000CFEFD8E0DEBFCDBF84B78093D70384B73E
:1000C000807E84BF0FB6F894A89580916000886107
:1000D00080936000109260000FBE13E0A0E0B1E0DA
:1000E000E8E0FDE102C005900D92A032B107D9F71A
:1000F00023E0A0E2B3E001C01D92A63DB207E1F704
:1001000025D10C94570E7CCF0895EF92FF920F9358
:100110001F93CF93DF93CDB7DEB7A1970FB6F894B7
:10012000DEBF0FBECDBF082FE62EF72E142F60E0E6
:1001300084E291E0BFD5802FD8D561E089EC92E0D0
:10014000B9D560E08EE291E0B5D5FE01319681E24D
:10015000DF011D928A95E9F7112351F0AE2DBF2DD5
:100160009F01210F311D8D918193E217F307D9F77C
:1001700060E0CE0101969ED561E089EC92E09AD5CF
:10018000A1960FB6F894DEBF0FBECDBFDF91CF9121
:100190001F910F91FF90EF9008958F929F92AF92D1
:1001A000BF92CF92DF92EF92FF920F931F93CF9364
:1001B000DF93662309F4BDC0EC016150062F10E007
:1001C0000F5F1F4F080F191FCC24C3940F2EF7E0A9
:1001D000EF2EF02D0F2EFAE0DF2EF02D0F2EF6E091
:1001E000FF2EF02D0F2EF5E08F2EF02D6894992420
:1001F00092F80F2EF3E0AF2EF02D6894BB24B1F8E7
:1002000080912203882311F088814CD5E09121034D
:100210004E2F50E04B30510508F086C0FA01EC5CDF
:10022000FF4F0C946A0B1092370310923803109210
:10023000200388818C3319F4C092210375C0109279
:10024000210372C08881833419F4B09221036CC0F9
:100250001092210369C088818D3419F4A092210382
:1002600063C01092210360C08881843419F4909295
:1002700021035AC01092210357C088818E3319F48C
:100280008092210351C0109221034EC08881809337
:100290003703F092210348C0888190ED980F9A307F
:1002A00058F4880F8056982F990F990F890F8093D3
:1002B0002003D092210338C01092210335C08881D9
:1002C00090ED980F9A3058F4909120039053890F35
:1002D00080932003E09221038093380325C010927D
:1002E000210322C0809120038823A1F098819D30B2
:1002F00019F41092210318C0E0922103E091380311
:10030000F0E0E81BF109EF59FC4F90838150809396
:1003100020030AC088818D3029F410922103C092F5
:10032000230302C0109221032196C017D10709F0C0
:1003300067CFDF91CF911F910F91FF90EF90DF90EA
:10034000CF90BF90AF909F908F900895CF93DF9301
:10035000CDB7DEB7C354D1090FB6F894DEBF0FBED8
:10036000CDBF40E066E085E04CD4FED4789436D52D
:1003700060E088E391E09ED460E08EE491E09AD45E
:1003800061E089EC92E096D485E0FE013196DF01D0
:10039000282F1D922A95E9F73596DF011D928A953F
:1003A000E9F71B8685E0A9D55E01BCE0AB0EB11C68
:1003B0000F2EF1E68F2EF3E09F2EF02D2E01E6E0BA
:1003C0004E0E511C3E01FDE26F0E711C0F2EF7E91F
:1003D0002F2EF1E03F2EF02DA1D5E0911401F091E8
:1003E00015010590F491E02D83E893E00995BE0195
:1003F000655F7F4F89E393E0D4D38F3F29F0682F67
:1004000089E393E0CADE15C060E084E591E052D450
:100410008B856BD461E089EC92E04CD481E080D58F
:100420002FEF8FEB91E2215080409040E1F700C028
:10043000000080912303882379F260E084E691E054
:1004400039D4E09137038E2F90E0FC01E154F1099B
:10045000E031F10508F057C3E15CFF4F0C946A0BE3
:100460009091220381E0892780932203882329F039
:1004700061E082E791E01ED44AC361E08EE791E03B
:1004800019D445C380E531D461E089EC92E012D4FF
:1004900080913803823208F098C060E08BE891E0E8
:1004A00009D481E2D5011D928A95E9F7909138032C
:1004B000992371F0E1E6F3E0DE011C962FEF290F9E
:1004C00030E02E593C4F81918D93E217F307D9F715
:1004D000F501E90FF11D108260E0C501EBD361E089
:1004E00089EC92E0E7D3E0910C01F0910D010590C9
:1004F000F491E02D40913803B50183E893E009952C
:10050000D3D42EAF3FAF21964FAF219722965FAF46
:10051000229723966FAF239724967FAF2497E0917D
:100520000A01F0910B010590F491E02D40E0BE012D
:100530006F5F7F4F83E893E00995182FB5D428AFFC
:1005400039AF4AAF5BAF6CAF7DAF1D7FC9F58BE0B4
:10055000F30111928A95E9F7E8ACF9AC0AAD1BAD4D
:100560002CAD3DAD4EAD5FAD21966FAD219722967E
:100570007FAD229723968FAD239724969FAD249726
:1005800033D49F938F937F936F933F922F927F9259
:100590006F920E947F0B61E08BE991E08BD360E06A
:1005A0008BEA91E087D360E0C30184D361E089ECFA
:1005B00092E080D30FB6F894DEBF0FBECDBFA7C2C6
:1005C00061E082EB91E076D3A2C261E083EC91E03E
:1005D00071D39DC281E489D361E089EC92E06AD352
:1005E00080913803853029F560E08AED91E062D38F
:1005F000409138034423B1F0E1E6F3E09E012F5F20
:100600003F4FBE01645F7F4F415050E04E595C4FF9
:100610008191D9018D939D01DB018D93BD014E1711
:100620005F07B1F78EE3898B1A8A61E0C50142D377
:100630006EC261E083EE91E03DD369C282E455D39E
:1006400061E089EC92E036D380913803853029F55A
:1006500060E087EF91E02ED3409138034423B1F05E
:10066000E1E6F3E09E012A5F3F4FBE01645F7F4FEA
:10067000415050E04E595C4F8191D9018D939D01BD
:10068000DB018D93BD01E417F507B1F78EE3898B8C
:100690001A8A61E0C5010ED33AC261E080E092E0BF
:1006A00009D335C283E421D361E089EC92E002D31F
:1006B00080913803811190C061E084E192E0FAD228
:1006C0008CE0E8E1F1E0D50101900D928A95E1F727
:1006D000E0911001F09111010590F491E02DCC848E
:1006E000DD84EE84FF84088919892A893B894C8935
:1006F0005D896E897F8983E893E009951DA65FA6D1
:100700004EA685E088AB19AAFF24F394FAAA1BAA87
:10071000E0910E01F0910F010590F491E02D00E0C1
:100720001EA52FA535E040E051E060E083E893E0AE
:100730000995F9AAFDA6E0910E01F0910F0105902F
:10074000F491E02D0F2D1EA52FA538A949A95AA96E
:100750006BA983E893E00995F394B6E0FB12EACF26
:10076000E0910001F09101010590F491E02D62E02B
:1007700083E893E00995E0910201F091030105906F
:10078000F491E02D65E870E083E893E00995E0914D
:100790000401F09105010590F491E02D64E870E00A
:1007A00083E893E00995E0910601F0910701059037
:1007B000F491E02D83E893E00995E0911201F09126
:1007C00013010590F491E02D83E893E0099561E031
:1007D0008AE292E06FD29BC1F40190819C3409F0CF
:1007E00096C1813009F093C161E084E192E062D268
:1007F0008CE0E8E1F1E0D50101900D928A95E1F7F6
:10080000E0911001F09111010590F491E02DCC845C
:10081000DD84EE84FF84088919892A893B894C8903
:100820005D896E897F8983E893E009951DA65FA69F
:100830004EA685E088AB19AAFF24F394FAAA1BAA56
:10084000E0910E01F0910F010590F491E02D00E090
:100850001EA52FA535E040E051E060E083E893E07D
:100860000995F9AAFDA6E0910E01F0910F010590FE
:10087000F491E02D0F2D1EA52FA538A949A95AA93D
:100880006BA983E893E00995F394F6E0FF12EACFB1
:10089000E0910001F09101010590F491E02D62E0FA
:1008A00083E893E00995E0910201F091030105903E
:1008B000F491E02D65E870E083E893E00995E0911C
:1008C0000401F09105010590F491E02D64E870E0D9
:1008D00083E893E00995E0910601F0910701059006
:1008E000F491E02D83E893E00995E0910801F091FF
:1008F00009010590F491E02D83E893E0099561E00A
:100900008CE392E0D7D103C184E4EFD161E089ECBC
:1009100092E0D0D180913803823208F04DC060E07F
:1009200081E592E0C7D181E2D5011D928A95E9F770
:1009300090913803992371F0E1E6F3E0DE011C9613
:100940002FEF290F30E02E593C4F81918D932E17B8
:100950003F07D9F7F501E90FF11D108260E0C501ED
:10096000A9D161E089EC92E0A5D1E0910C01F09170
:100970000D010590F491E02D40913803B50183E815
:1009800093E00995E0910A01F0910B010590F49133
:10099000E02D40E0BE016F5F7F4F83E893E0099553
:1009A0008D7F29F461E08BE592E084D1B0C061E0F5
:1009B00089E692E07FD1ABC061E088E792E07AD12E
:1009C000A6C085E492D161E089EC92E073D13091C8
:1009D0003803323208F092C081E1F50111928A9514
:1009E000E9F7D4018C918C87323008F443C0E1E6FA
:1009F000F3E091E020E080E051E060E041E021118F
:100A000015C081812FEB280F263010F4875303C0C7
:100A100080538A3030F48F3F21F08295807F242FDD
:100A200025C061E08DE892E045D124C02130F1F489
:100A300021817FEB720F763010F4275303C02053CF
:100A40002A3038F42F3F29F0513140F0262F862FDD
:100A50000DC061E08DE892E02DD10CC0D501A50F4D
:100A6000B11D820F8C935F5F262F862F9F5F31967B
:100A70003913C5CF4091380346954F5FE0910C0183
:100A8000F0910D010590F491E02DB50183E893E01C
:100A9000099560E08BE992E00DD120E030E010E0B4
:100AA000F501E20FF31F808120D11F5F212F30E07D
:100AB00080913803869590E001962817390784F3D2
:100AC00061E089EC92E0F6D0E0910A01F0910B012F
:100AD0000590F491E02D40E0BE016F5F7F4F83E809
:100AE00093E009958D7F29F461E08BE592E0E2D0F7
:100AF0000EC061E089E692E0DDD009C061E085EAE0
:100B000092E0D8D004C061E08DEB92E0D3D0109297
:100B1000230362CC1F920F920FB60F9211241092F2
:100B2000A7030F900FBE0F901F9018951F920F9262
:100B30000FB60F9211248F939F93EF93FF938091A1
:100B4000C0008C7191F0E0ECF0E080818C7190E05D
:100B500095958795959587958093A80386E08093D2
:100B6000AA038081837E808313C082E08093AA03DE
:100B7000E091A90381E08E0F8093A9039091C600B4
:100B8000F0E0E555FC4F9083883210F01092A903F5
:100B9000FF91EF919F918F910F900FBE0F901F903B
:100BA0001895DC01F8948091AA038230C9F48091F1
:100BB000A903882381F090E0292F30E0F901E55561
:100BC000FC4F4081FD01E20FF31F40839F5F809146
:100BD000A903981788F31092A9031092AA030FC0D3
:100BE000863061F41092A9031092AA038091A803A1
:100BF000FB0180831092A8038FEF01C080E07894FE
:100C0000089591E0873008F490E0911145C091E09B
:100C1000673008F490E091113FC01092A903109240
:100C2000A7031092AA03E1ECF0E090819861908311
:100C3000A2ECB0E09C9196609C9390819068908328
:100C4000908190649083000070E0FB01EE0FFF1F25
:100C5000E60FF71FEE0FFF1FE80FF11DEE0FFF1F4E
:100C6000E553FD4F808191818F3F2FEF9207B1F0C7
:100C70008093C400413039F4E2ECF0E0808180627E
:100C8000808382E00895423059F4E2ECF0E0808104
:100C90008063808382E0089580E0089581E0089574
:100CA00082E008958093C600E0ECF0E0808185FF4B
:100CB000FDCF08951F93CF93DF93EC01162F892B5F
:100CC00051F08881882339F02196ECDF209719F0C4
:100CD00089918111FACF112321F08AE0E3DF8DE0C1
:100CE000E1DFDF91CF911F910895CF93982F9295D7
:100CF0009F70C82FCF709A3020F087E3890FD2DF22
:100D000003C080E3890FCEDFCA3020F087E38C0F69
:100D1000C9DF03C080E38C0FC5DFCF9108951F9218
:100D20000F920FB60F9211248F939F93AF93BF939F
:100D30008091240390912503A0912603B09127036D
:100D40000196A11DB11D8093240390932503A093C8
:100D50002603B0932703BF91AF919F918F910F907E
:100D60000FBE0F901F901895CF92DF92EF92FF92D7
:100D70000F931F93CF93DF93CDB7DEB72C970FB6AA
:100D8000F894DEBF0FBECDBF80E09ED4E090160188
:100D90001D821C829FE7192F198618867C85716039
:100DA0000F2EF3E0CF2EF02DD12CF12C0D8120E071
:100DB00030E04985582F62E080911701E7D02C96EA
:100DC0000FB6F894DEBF0FBECDBFDF91CF911F915C
:100DD0000F91FF90EF90DF90CF90089560E070E06A
:100DE000809117019CC30895CF92DF92EF92FF92FA
:100DF0000F931F93CF93DF93CDB7DEB72C970FB62A
:100E0000F894DEBF0FBECDBF49835A836B837C83CA
:100E10008D839E83EF82F88609871A872B873C870C
:100E2000CF80D884E984FA8489819A81AB81BC819E
:100E3000C81AD90AEA0AFB0ACC0CDD1CEE1CFF1CFE
:100E4000CC0CDD1CEE1CFF1CCC0CDD1CEE1CFF1CB6
:100E5000CC0CDD1CEE1CFF1CCC0CDD1CEE1CFF1CA6
:100E6000CC0CDD1CEE1CFF1CCC0CDD1CEE1CFF1C96
:100E70002B853C858D819E81281B390BAFEFBFE709
:100E80002FD46C0D7D1D8E1D9F1D2C960FB6F894D2
:100E9000DEBF0FBECDBFDF91CF911F910F91FF90AD
:100EA000EF90DF90CF9008950F931F93CF93DF9330
:100EB00000D000D000D0CDB7DEB710912403009150
:100EC000250380911701EBD3A0E0B0E089839A83DA
:100ED000AB83BC83282F3A814B815C81612F702FBB
:100EE00080E090E026960FB6F894DEBF0FBECDBF2F
:100EF000DF91CF911F910F91089583FD02C098E07B
:100F000001C098E28770892B98E10FB6F894A895F4
:100F1000909360000FBE809360000895A895089597
:100F20008093D603FFCF1F920F920FB60F9211241A
:100F30002F933F934F935F936F937F938F939F93E1
:100F4000AF93BF93EF93FF93EBE2F3E080818F5F6A
:100F5000808390912E03891308C010922B03E09197
:100F60003103F091320380E00995FF91EF91BF9139
:100F7000AF919F918F917F916F915F914F913F9131
:100F80002F910F900FBE0F901F901895CF92DF9268
:100F9000EF92FF920F931F93CF93DF93CDB7DEB7FE
:100FA0002C970FB6F894DEBF0FBECDBF9C2DC98223
:100FB000DA82EB82FC820D831E832F833887498778
:100FC0005A876B877C874C815D810E811F819130B0
:100FD00061F138F0923009F45EC0933009F441C0F9
:100FE00076C0813059F4E0E8F0E090819C7F9083F6
:100FF000E1E8F0E09081977E90833FC2811107C0C5
:1010000094B59C7F94BD95B5977F95BDF5C1823011
:1010100009F01EC2E0EBF0E090819C7F9083E1EB51
:10102000F0E09081977F9083FDC1813009F425C263
:10103000811108C094B59C7F916094BD95B5977F50
:1010400095BDDAC1823009F003C2E0EBF0E0908197
:101050009C7F91609083E1EBF0E09081977F90839B
:10106000E1C1813009F409C2811107C094B59360D0
:1010700094BD95B5977F95BDBFC1823009F0E8C199
:10108000E0EBF0E0908193609083E1EBF0E0908101
:10109000977F9083C7C1813009F4EFC1811108C0E7
:1010A00094B59C7F926094BD95B5977F95BDA4C182
:1010B000823009F0CDC1E0EBF0E090819C7F92603E
:1010C0009083E1EBF0E09081977F9083ABC19A81B0
:1010D000913009F49DC030F0923009F463C0933030
:1010E00089F1CCC0611117C0813031F4E0E8F0E043
:1010F00090819F739083E8C1811104C094B59F7360
:1011000094BDC7C1823009F0D6C1E0EBF0E0908118
:101110009F739083C7C1813031F4E0E8F0E09081A3
:101120009F7C9083D1C1811104C094B59F7C94BDF4
:10113000B0C1823009F0BFC1E0EBF0E090819F7C4C
:101140009083B0C1611117C0813031F4E0E8F0E064
:101150009081906C9083B8C1811104C094B5906C5B
:1011600094BD97C1823009F0A6C1E0EBF0E0908118
:10117000906C908397C1813031F4E0E8F0E0908189
:1011800090639083A1C1811104C094B5906394BD14
:1011900080C1823009F08FC1E0EBF0E09081906374
:1011A000908380C161111AC0813039F4E0E8F0E029
:1011B00090819F739068908387C1811105C094B519
:1011C0009F73906894BD65C1823009F074C1E0EBF3
:1011D000F0E090819F739068908364C1813039F40E
:1011E000909181009F7C9062909380006DC18111ED
:1011F00005C094B59F7C906294BD4BC1823009F0CC
:101200005AC1E0EBF0E090819F7C906290834AC1EC
:1012100061111AC0813039F4E0E8F0E090819F73E9
:101220009064908351C1811105C094B59F739064FF
:1012300094BD2FC1823009F03EC1E0EBF0E0908117
:101240009F73906490832EC1813039F49091810016
:101250009F7C90619093800037C1811105C094B547
:101260009F7C906194BD15C1823009F024C1E0EBF0
:10127000F0E090819F7C9061908314C1E82FF0E0B2
:101280009F012D523C4F9B81D9019C93813039F4B1
:1012900021E830E0D9019C91987F9C930EC0811188
:1012A00004C095B5987F95BD08C0823031F421EB1C
:1012B00030E0D9019C91987F9C939C8591FF3BC025
:1012C00061111CC0813039F42FE630E0D9019C91C6
:1012D00092609C9309C1811107C02EE630E0D901CC
:1012E0009C9192609C9304C1823009F0F6C020E783
:1012F00030E0D9019C9192609C93F2C06130D9F4A6
:10130000813039F42FE630E0D9019C9194609C93B0
:10131000EBC0811107C02EE630E0D9019C919460AA
:101320009C93E6C0823039F420E730E0D9019C91EB
:1013300094609C93D5C090FF1CC0813039F42FE697
:1013400030E0D9019C9191609C9315C0811107C038
:101350002EE630E0D9019C9191609C9316C08230BA
:1013600009F0CAC020E730E0D9019C9191609C93BC
:1013700013C0813041F45527509385004093840079
:1013800061111BC00EC0811104C046BD662381F0EF
:1013900014C0823009F0B0C04093B200662351F00F
:1013A0000CC0D801BB27B0938900A0938800A4C0CB
:1013B00007BDA2C00093B3009FC0613009F09CC07C
:1013C000813039F4D801BB27B0938B00A0938A00F9
:1013D00093C0811102C008BD8FC0823009F08CC05B
:1013E0000093B40089C0E82FF0E09F012D523C4FDC
:1013F0009B81D9019C9355CF9A81913009F408CFF4
:1014000008F470CE923009F4CDCE933009F49ACE20
:10141000EACFE82FF0E09F012D523C4F9B81D9018C
:101420009C9345CF9A81913009F4F2CE08F45ACEBC
:10143000923009F4B7CE933009F484CEEACFE82F86
:10144000F0E09F012D523C4F9B81D9019C9335CFF9
:101450009A81913009F4DCCE08F444CE923009F43C
:10146000A1CE933061F76ECEE82FF0E09F012D52B0
:101470003C4F9B81D9019C930BCF9A81913009F409
:10148000C7CE08F42FCE923009F48CCE933061F79A
:1014900059CEE82FF0E09F012D523C4F9B81D9019E
:1014A0009C93FFCEE82FF0E09F012D523C4F9B8193
:1014B000D9019C93FCCEE82FF0E09F012D523C4FC8
:1014C0009B81D9019C93F9CEE82FF0E09F012D522A
:1014D0003C4F9B81D9019C93DBCE90FF4ACF0CC03F
:1014E0009C8590FF59CF3ECF9C8590FD28CF43CF60
:1014F0009C8590FF4ACF2CCFE85DFC4F81E0808334
:101500002C960FB6F894DEBF0FBECDBFDF91CF9102
:101510001F910F91FF90EF90DF90CF900895282FAB
:1015200030E0F901E85DFC4F90819150923008F075
:10153000B5C0F901ED52FC4FE0814E2F50E047302D
:10154000510508F0A6C0FA01E15BFF4FC3C082302D
:1015500039F4E1EBF0E08081887F8160808399C07D
:10156000813039F4E1E8F0E08081887F8160808318
:1015700090C081118EC085B5887F816085BD89C08E
:10158000823039F4E1EBF0E08081887F82608083F3
:1015900080C0813039F4E1E8F0E08081887F8260AA
:1015A000808377C0811175C085B5887F826085BDD5
:1015B00070C0813009F46DC0811105C085B5887F88
:1015C000836085BD66C0823009F063C0E1EBF0E066
:1015D0008081887F836080835CC0823039F4E1EB56
:1015E000F0E08081887F8460808353C0813039F44B
:1015F000E1E8F0E08081887F836080834AC08111C8
:1016000048C085B5887F836085BD43C0813009F4BB
:1016100040C0811105C085B5887F836085BD39C014
:101620008230B9F5E1EBF0E08081887F83608083D0
:1016300030C0823039F4E1EBF0E08081887F866051
:10164000808327C0813039F4E1E8F0E08081887F31
:10165000846080831EC081111CC085B5887F846032
:1016600085BD17C0823031F4E1EBF0E08081876006
:1016700080830FC0813039F4E1E8F0E08081887F19
:101680008560808306C0811104C085B5887F856030
:1016900085BDF901E85DFC4F83E0808308958130CA
:1016A00029F480918400909185000895811103C0F0
:1016B00086B590E00895823021F48091B20090E0E8
:1016C000089580E090E00895982F9D7F81E009F4CF
:1016D00080E00895EE0FFF1F0590F491E02D09942E
:1016E000A29FB001B39FC001A39F700D811D112463
:1016F000911DB29F700D811D1124911D0895AEE0C2
:10170000B0E0E4E8FBE0AAC20D891E8986E08C8384
:101710001A8309838FEF9FE79E838D83AE01475E17
:101720005F4F6F89788DCE01019608D0EF81F885E3
:10173000E00FF11F10822E96E4E0ACC2ABE0B0E007
:10174000E3EAFBE07DC26C017B018A01FC011782A8
:101750001682838181FFBFC1CE0101963C01F60153
:101760009381F70193FD859193FF81917F018823F8
:1017700009F4ADC1853239F493FD859193FF8191D0
:101780007F01853221F4B60190E0C0D1E8CF912CE1
:10179000212C312CFFE1F315D8F08B3279F038F49D
:1017A000803279F08332A1F4232D20611DC08D3267
:1017B00061F0803369F4232D216016C0832D82608F
:1017C000382EE32DE4603E2E2AC0F32DF8601DC0B4
:1017D00037FC2DC020ED280F2A3040F08E32B9F4AE
:1017E00036FC75C1232D2064322E19C036FE06C08A
:1017F0008AE0989E200D1124922E11C0EAE02E9EC0
:10180000200D1124222EF32DF0623F2E08C08C36BD
:1018100021F4832D8068382E02C0883641F4F70108
:1018200093FD859193FF81917F018111B3CF982F13
:101830009F7D9554933028F40C5F1F4F9FE399834D
:101840000DC0833631F0833771F0833509F055C010
:1018500020C0F801808189830E5F1F4F8824839404
:10186000912C530112C02801F2E04F0E511CF801D7
:10187000A080B18036FE03C0692D70E002C06FEF1A
:101880007FEFC50138D14C018201F32DFF773F2E48
:1018900015C0280122E0420E511CF801A080B18041
:1018A00036FE03C0692D70E002C06FEF7FEFC50107
:1018B00017D14C01F32DF0683F2E820133FC19C083
:1018C000822D90E088169906A0F4B60180E290E09F
:1018D0001DD12A94F5CFF50137FC859137FE819112
:1018E0005F01B60190E012D121102A9421E0821A02
:1018F00091088114910479F7E1C0843611F089369A
:1019000039F5F80137FE07C06081718182819381CA
:101910000C5F1F4F08C060817181072E000C880B7F
:10192000990B0E5F1F4FF32DFF763F2E97FF09C0D7
:1019300090958095709561957F4F8F4F9F4FF06880
:101940003F2E2AE030E0A3011DD1882E861844C026
:10195000853731F4232D2F7EB22E2AE030E025C0CA
:10196000932D997FB92E8F36C1F018F4883579F010
:10197000AEC0803719F0883721F0A9C0E92FE061A7
:10198000BE2EB4FE0DC0FB2DF460BF2E09C034FE88
:101990000AC0292F2660B22E06C028E030E005C01C
:1019A00020E130E002C020E132E0F801B7FE07C0DC
:1019B00060817181828193810C5F1F4F06C06081BD
:1019C000718180E090E00E5F1F4FA301DBD0882E75
:1019D0008618FB2DFF773F2E36FE0DC0232D2E7F60
:1019E000A22E891458F434FE0BC032FC09C0832D9A
:1019F0008E7EA82E05C0B82CA32C03C0B82C01C025
:101A0000B92CA4FE0FC0FE01E80DF11D80818033CA
:101A100021F49A2D997EA92E09C0A2FE06C0B39486
:101A2000B39404C08A2D867809F0B394A3FC10C047
:101A3000A0FE06C0B21480F4280C922C9B180DC096
:101A4000B21458F4B60180E290E060D0B394F8CFBD
:101A5000B21418F42B1802C0982C212CA4FE0FC02D
:101A6000B60180E390E052D0A2FE16C0A1FC03C0F4
:101A700088E790E002C088E590E0B6010CC08A2DAE
:101A8000867851F0A1FE02C08BE201C080E2A7FC83
:101A90008DE2B60190E03AD0891430F4B60180E3CB
:101AA00090E034D09A94F8CF8A94F301E80DF11DB8
:101AB0008081B60190E02AD08110F6CF222009F46F
:101AC0004ECEB60180E290E021D02A94F7CFF60105
:101AD0008681978102C08FEF9FEF2B96E2E1CCC009
:101AE000FC010590615070400110D8F780959095E9
:101AF0008E0F9F1F0895FC016150704001900110EE
:101B0000D8F7809590958E0F9F1F08950F931F9380
:101B1000CF93DF93FB01238121FD03C08FEF9FEF64
:101B20002CC022FF16C0468157812481358142177F
:101B3000530744F4A081B1819D012F5F3F4F318352
:101B400020838C93268137812F5F3F4F37832683F5
:101B500014C08B01EC01FB010084F185E02D099597
:101B6000892BE1F6D80116968D919C9117970196D5
:101B700017969C938E931697CE01DF91CF911F916C
:101B80000F910895FA01AA27283051F1203181F1EF
:101B9000E8946F936E7F6E5F7F4F8F4F9F4FAF4F75
:101BA000B1E03ED0B4E03CD0670F781F891F9A1F88
:101BB000A11D680F791F8A1F911DA11D6A0F711D3C
:101BC000811D911DA11D20D009F468943F912AE048
:101BD000269F11243019305D3193DEF6CF01089530
:101BE000462F4770405D4193B3E00FD0C9F7F6CF61
:101BF000462F4F70405D4A3318F0495D31FD405229
:101C0000419302D0A9F7EACFB4E0A69597958795BE
:101C100077956795BA95C9F700976105710508959D
:101C20009B01AC010A2E0694579547953795279549
:101C3000BA95C9F7620F731F841F951FA01D0895E1
:101C40002F923F924F925F926F927F928F929F92CC
:101C5000AF92BF92CF92DF92EF92FF920F931F93BA
:101C6000CF93DF93CDB7DEB7CA1BDB0B0FB6F8946B
:101C7000DEBF0FBECDBF09942A88398848885F84AB
:101C80006E847D848C849B84AA84B984C884DF801C
:101C9000EE80FD800C811B81AA81B981CE0FD11D00
:101CA0000FB6F894DEBF0FBECDBFED010895F894D6
:021CB000FFCF64
:101CB2001F920F920FB60F9211248F93EF93FF93FF
:101CC200E3E8F3E0868D8F5F868F2A988FEF8EBDD3
:101CD2000DB407FEFDCF8EB58093A2032A9A2A98EF
:101CE20087E28EBD0DB407FEFDCF80E78EBD0DB439
:101CF20007FEFDCF2A9AFF91EF918F910F900FBEB1
:061D02000F901F901895E0
:101D08001E601A601860126010600E600C600A6035
:101D18000460026000600602030B0F7002010103F9
:101D2800000001003C52585F504950453A003C526F
:101D3800585F444154413A003C4E524632344C308C
:101D4800315F70726F6772616D6D65723A00322E25
:101D5800312E30003C554152545F52585F45525223
:101D68004F523A003C455845435554455F434D440E
:101D78003A00434F4E534F4C455F4F4E3E00434F42
:101D88004E534F4C455F4F46463E003C53454E44EC
:101D98005F50494E473A00256C75003C53454E4408
:101DA8005F50494E473A41434B3E003C50494E47ED
:101DB8003A003C53454E445F50494E473A4E4143E2
:101DC8004B3E003C53454E445F50494E473A4C45C4
:101DD8004E4754485F4552523E003C5345545F5469
:101DE800583A003C5345545F54583A4C454E475472
:101DF800485F4552523E003C5345545F52583A00A2
:101E08003C5345545F52583A4C454E4754485F45F9
:101E180052523E003C4E52465F434F4E4649473A67
:101E28005354415254494E473E003C4E52465F433C
:101E38004F4E4649473A444F4E453E003C4E524667
:101E48005F434F4E4649473A444F4E455F52583ECE
:101E5800003C53454E445F54583A003C53454E4469
:101E68005F54583A41434B3E003C53454E445F54FF
:101E7800583A4E41434B3E003C53454E445F5458FC
:101E88003A4C454E4754485F4552523E003C494EF5
:101E980056414C49445F4845583E003C54585F44BD
:101EA8004154413A003C53454E445F464C415348E7
:101EB8003A4C454E4754485F4552523E003C434DCC
:101EC800445F494E56414C49443E000C000600010F
:101ED800000000FFFFFFFF19000C000300010000D5
:101EE80000FFFF33001900080003000100FFFF672F
:101EF800003300100008000300FFFFCF0067002236
:101F08000010000700FFFF3B001D0009000400004F
:101F180000FFFF470023000B0005000200FFFF0041
:00000001FF
