:103000001F93CF93DF931F92CDB7DEB7109274005A
:10301000C398BB9ABA9A8A988BB781608BBF82E0BB
:103020008BBF8BB780648BBF85B7826085BF87EF0E
:103030009AE20197F1F700C000000E94921D83E020
:10304000898341E0BE016F5F7F4F0E94991C85E13B
:10305000898341E0BE016F5F7F4F84E00E94991C2D
:1030600010E7198341E0BE016F5F7F4F85E00E944A
:10307000991C89E0898341E0BE016F5F7F4F86E044
:103080000E94991C8FE0898341E0BE016F5F7F4FF2
:1030900080E00E94991C198341E0BE016F5F7F4F61
:1030A00087E00E94991C20E040E050E060E070E082
:1030B00081EE0E94B01C20E040E050E060E070E053
:1030C00082EE0E94B01C8FEC97E00197F1F700C0F0
:1030D0000000C39A0F90DF91CF911F910895CF9276
:1030E000DF92EF92FF920F931F93CF93DF931F9284
:1030F000CDB7DEB7FB01863008F060C0811110C08B
:103100009081909363009181909364009281909359
:10311000650093819093660094819093670002C04C
:10312000813011F495E001C091E0E42EBF01F82E4A
:10313000492F8AE08F0D0E94991CBE016F5F7F4F5F
:1031400081E00E94DC1CCF2CD12C01E010E00F2C80
:1031500001C0000F0A94EAF78981802B898341E03E
:10316000BE016F5F7F4F81E00E94991CE11002C099
:1031700080E001C080E2898341E0BE016F5F7F4F44
:1031800081E18F0D0E94991C8981F601E359FF4F5F
:103190008083BE016F5F7F4F82E00E94DC1C8981CB
:1031A000EE2011F0082B02C000950823098341E0AE
:1031B000BE016F5F7F4F82E00E94991C0F90DF91EC
:1031C000CF911F910F91FF90EF90DF90CF900895D6
:1031D0000F931F93CF93DF931F92CDB7DEB7643069
:1031E000C8F48230B8F4162F082FBE016F5F7F4FEE
:1031F00086E00E94DC1C99819660612F660F69232E
:1032000001116860698341E0BE016F5F7F4F86E016
:103210000E94991C0F90DF91CF911F910F910895FB
:10322000FC018081A8E6B0E08C93818111968C939B
:103230001197828112968C931297838113968C93A7
:103240001397848114968C9345E0BF0180E10C9420
:10325000991CEF92FF921F93CF93DF931F92CDB7EC
:10326000DEB77C01162F81E080937400C398BE0105
:103270006F5F7F4F80E00E94DC1C898180FF11C05E
:103280008E7F898341E0BE016F5F7F4F80E00E94A7
:10329000991C86E58A95F1F700C086E58A95F1F7D5
:1032A00000C045E068E670E08AE00E94991C20E2D8
:1032B00040E050E0B70180EA0E94B01CC39A1111AF
:1032C00007C0809174008111FCCF8091600001C023
:1032D00081E00F90DF91CF911F91FF90EF900895C3
:1032E000CF93DF93EC0110927400C3980E94931C5B
:1032F0008E7090E095958795FC01E359FF4F2081F2
:10330000213278F4873079F02081AE01BE0181E668
:103310000E94B01C0E94931C8E708E3031F484E0A9
:1033200005C080E003C082E001C083E0C39A109230
:103330007400DF91CF91089520E040E050E060E01C
:1033400070E081EE0E94B01C20E040E050E060E0C0
:0833500070E082EE0C94B01C49
:103800000C942A1C0C94161D0C94471C0C94471CF9
:103810000C94471C0C94471C0C94471C0C94471C9C
:103820000C94471C0C94471C0C94471C0C94471C8C
:103830000C94471C0C94471C0C94471C0C94471C7C
:103840000C94471C0C94471C0C94471C0C94471C6C
:103850000C94471C11241FBECFE5D4E0DEBFCDBFC2
:1038600010E0A0E6B0E0E4EAFBE302C005900D92B0
:10387000A437B107D9F720E0A4E7B0E001C01D925A
:10388000A739B207E1F70E94501C0C94D01D0C948C
:10389000001C81E090E0909396008093950008953D
:1038A000CF93DF9300D000D01F92CDB7DEB7B89A88
:1038B0000E94001845E050E060E070E0CE01019603
:1038C0000E94C01D41E0BE016F5F7F4F81E00E94FA
:1038D0006F1880EE8093790080E780937A0085E30B
:1038E00080937B0081E080937C0081EA80937D005F
:1038F00063E081E00E94E8187894809195009091AF
:103900009600892BD1F385E790E00E9470190E9400
:103910009C19109296001092950080917E008A3A30
:1039200061F7C09AEACFC2988FEF0E94BB1DC29A7E
:1039300008950F931F93CF93DF938B01D42FC298D9
:103940008F7180620E94BB1DC82F6D2FC8010E941D
:10395000AF1DC29A8C2FDF91CF911F910F910895C7
:10396000EF92FF920F931F93CF938B017A01C22F97
:10397000C2980E94BB1DCC2369F0E114F10429F424
:103980006C2FC8010E94AF1D05C04C2FB701C801A4
:103990000E949F1DC29ACF911F910F91FF90EF90AF
:1039A000089580916D00882331F045E063E670E072
:1039B0008AE00C94991C08951F93CF93DF93EB0139
:1039C0009FEF9883C2988F710E94BB1D182F41E012
:1039D000BE0180E090E00E949F1DC29A812FDF917E
:1039E000CF911F910895CF93DF931F92CDB7DEB78C
:1039F000BE016F5F7F4F80E00E94DC1C898180FDEB
:103A000011C08160898341E0BE016F5F7F4F80E01C
:103A10000E94991C86E58A95F1F700C086E58A9593
:103A2000F1F700C00F90DF91CF9108951F920F9290
:103A30000FB60F9211242F933F934F935F936F9381
:103A40007F938F939F93AF93BF93EF93FF93CF9306
:103A5000DF931F92CDB7DEB780E48ABFC3980E9480
:103A6000931C898386FF04C08E7086950E94491C32
:103A7000898185FF1DC0109274000E94D11C0E9494
:103A8000F31C8091610090916200880F991F9093C0
:103A9000620080936100809161009091620081607A
:103AA000909362008093610081E0809360001CC06D
:103AB00084FF1AC020E040E050E060E070E081EE5A
:103AC0000E94B01C109274000E94D11C0E94F31C32
:103AD0008091610090916200880F991F909362001D
:103AE000809361001092600080E7898341E0BE010D
:103AF0006F5F7F4F87E00E94991CC39A0F90DF9100
:103B0000CF91FF91EF91BF91AF919F918F917F9155
:103B10006F915F914F913F912F910F900FBE0F903A
:103B20001F90189587B38F7087BB87B3806B87BB57
:103B3000C49A80E58DB981E08EB9C4980895362F76
:103B4000FB012E2F231B241748F4DC012D91CD01FE
:103B50002FB9779BFECF2FB12193F3CF0895282F54
:103B6000FC018E2F821B861728F481918FB9779BD9
:103B7000FECFF7CF08958FB9779BFECF8FB1089511
:103B8000DC01CB01FC01E199FECF06C0FFBBEEBB1F
:103B9000E09A31960DB20D9241505040B8F7089519
:043BA000F894FFCFC7
:103BA40001FF00E7E7E7E7E7E7E7E7E7E7202000CB
:043BB400000000000D
:0400000300003800C1
:00000001FF
