:1000000041C000000C9455186AC0000068C0000090
:1000100066C0000064C0000062C0000060C0000054
:100020005EC000000C9410135AC0000058C00000BD
:1000300056C0000054C000000C94EA0E50C00000EE
:100040004EC000004CC000000C94210E48C00000BF
:100050000C94150E44C0000042C0000040C00000D7
:100060003EC000003CC000001A0729071507100712
:100070000B070607300D12122B1244125812711280
:1000800084129D1211241FBECFEFD8E0DEBFCDBF7A
:1000900084B78093B90684B7807E84BF0FB6F89486
:1000A000A895809160008861809360001092600044
:1000B0000FBE14E0A0E0B1E0E0E0F1E302C0059083
:1000C0000D92AA34B107D9F726E0AAE4B4E001C042
:1000D0001D92A83BB207E1F712D00C94531890CFB1
:1000E00081110CC080914D048F5F80934D048091ED
:1000F0004D048A3018F081E080934C040895CF932A
:10010000DF93CDB7DEB76E970FB6F894DEBF0FBEA4
:10011000CDBF40E066E080E00E945C0E61E084E7D5
:1001200091E00E94B50E80E00E94CF1292E09D8780
:100130001E8693E09F87198A188A95E5192F9A8B56
:100140001B8A1D8A1C8A8E8B1F8A788D7260788F1D
:100150006894CC24C1F8D12C0F2EF3E0EF2EF02DB3
:10016000F12C098920E030E04D89582F60E080E0D3
:100170000E941D0F41E060E770E080E00E94E61100
:1001800091D290934B0480934A0465ED76E081E030
:1001900032D26AE774E081E02ED26EEC73E082E046
:1001A0002AD20E940D13182F60E080E891E00E948F
:1001B000B50E812F0E94D00E8AE00E94AD0E8DE018
:1001C0000E94AD0E0E94F712182F60E088E991E0BE
:1001D0000E94B50E812F0E94D00E8AE00E94AD0EC3
:1001E0008DE00E94AD0E8CE0E5E5F1E0DE011196B8
:1001F00001900D928A95E1F7E0914D01F0914E0149
:100200000590F491E02DC980DA80EB80FC800D81AF
:100210001E812F81388549855A856B857C8581E6CD
:1002200096E00995E0913B01F0913C010590F49135
:10023000E02D62E081E696E00995E0913F01F091C2
:1002400040010590F491E02D65E573E081E696E0CC
:1002500009950E94660D0E945D0DCE01499626E02B
:10026000FC0111922A95E9F725E0E2E5F6E0DC01D0
:1002700001900D922A95E1F761E00E94B50E60E0D1
:1002800070E080E00E94FA110E9435130E946F1303
:10029000789486E00E94D5120E94E61280914D0467
:1002A000882361F080914D04815080934D04E0914A
:1002B0004A04F0914B04309709F0099580914C0461
:1002C000E0915101F09152010590F491E02D81E609
:1002D00096E00995E1CF0F931F93CF93DF93809121
:1002E00059048823A9F0C0E00FE011E0EC2FF0E002
:1002F000EE0FFF1FD8018D919C91E80FF91F01901F
:10030000F081E02D0995CF5F80915904C81770F3F3
:1003100080910E018823A9F0CCE0D1E0E09158044F
:10032000F0E0E81BF109CF01880F991FE881F981FE
:10033000E80FF91F0190F081E02D09958A81815025
:100340008A8340915404509155049A01ADECBCEC61
:100350000E9404149695879596958795969587950E
:100360009C01220F331F880F991F880F991F880F38
:10037000991F820F931F48175907E9F48091580479
:1003800080930E0180910B018823A9F0C9E0D1E090
:10039000E0915704F0E0E81BF109CF01880F991FA5
:1003A000E881F981E80FF91F0190F081E02D0995AE
:1003B0008A8181508A8340915404509155049A0156
:1003C0003695279536952795ABE7B4E10E9404143E
:1003D0009695879564E6689F9001699F300D11247A
:1003E0004217530721F48091570480930B014F5F0C
:1003F0005F4F9A013695279536952795ABE7B4E17F
:100400000E9404149695879564E6689F9001699F01
:10041000300D112442175307C9F480910801882335
:10042000A9F0C6E0D1E0E0915604F0E0E81BF10944
:10043000CF01880F991FE881F981E80FF91F01901A
:10044000F081E02D09958A8181508A83409154047E
:10045000509155049A0136952795369527953695EE
:100460002795A5ECB0E20E940414929582958F70B6
:1004700089279F70892768EE73E0869F9001879F88
:10048000300D969F300D11244217530741F480918F
:1004900056048093080110925504109254048091E0
:1004A00054049091550401969093550480935404FC
:1004B0008091520490915304892B41F18091510411
:1004C000882321F1C0E08C2F90E0FC01EE0FFF1F8C
:1004D0008E0F9F1F880F991FE0915204F0915304D3
:1004E000E80FF91F84819581019795838483892B77
:1004F00041F482819381958384830190F081E02D82
:100500000995CF5F80915104C817E8F280914F049C
:1005100090915004892B09F469C080914E0488237E
:1005200009F464C0C0E0E0914F04F0915004B4E0DD
:10053000CB9FE00DF11D112482819381019793835C
:100540008283892B09F04CC00190F081E02D099540
:10055000D0914E04D230D0F18D2F90E00197880FCA
:10056000991F880F991F0E9413148C01DD23E9F055
:10057000E0914F04F091500480E090E0C81789F0BA
:10058000D80124E0929FA00DB11D11242281338156
:1005900013963C932E931297208131812D933C9397
:1005A0009F5F8F5F3496D813E9CF80914F0490916D
:1005B00050040E94AB141093500400934F04C15098
:1005C00080914E04815080934E040AC080914F0464
:1005D000909150040E94AB141092500410924F045A
:1005E000CF5F80914E04C81708F49DCFDF91CF9163
:1005F0001F910F9108958130C1F028F0823031F1C0
:100600008330A9F145C0E0915904E83008F042C0B8
:100610008E2F91E09E0F90935904F0E0EE0FFF1F94
:10062000EA57FB4F718360830895E0915804E830E6
:1006300098F58E2F91E09E0F90935804F0E0EE0F06
:10064000FF1FEA55FB4F718360830895E0915704C3
:10065000E83020F58E2F91E09E0F90935704F0E044
:10066000EE0FFF1FEA58FB4F718360830895E091FE
:100670005604E830A8F48E2F91E09E0F9093560414
:10068000F0E0EE0FFF1FEA56FB4F71836083089581
:100690008FEF08958FEF08958FEF08958FEF0895EE
:1006A0008FEF08958BE691E00895CF92DF92EF925D
:1006B000FF920F931F93CF93DF938B01C42F61E0C1
:1006C00080EB91E00E94B50EC132A8F5D0915C0498
:1006D000D53088F5CD2ED12C23E2D29FC001112434
:1006E000FC01EA54FB4F7F014C2F50E0B801CF01D1
:1006F0000E94411580915A0491E0980F90935A04FA
:10070000F70181A3CF3058F083E28C9DF0018D9DDD
:10071000F00D1124EA54FB4FCE50C0A309C083E270
:100720008C9DF0018D9DF00D1124EA54FB4F10A219
:10073000DF5FD0935C04DF91CF911F910F91FF9009
:10074000EF90DF90CF900895CF93DF93CDB7DEB7D2
:1007500080915B048530F0F493E2899F900111242D
:100760002B593A4F90E2FE013596D90101900D9236
:100770009A95E1F790915A0441E0490F40935A0449
:10078000F90191A312A29DA190A38F5F80935B04B6
:1007900085E001C083E0DF91CF910895BF92CF92B1
:1007A000DF92EF92FF920F931F93CF93DF9300D0CE
:1007B00000D01F92CDB7DEB780915B04882309F487
:1007C0008AC0E0914F01F09150010590F491E02D25
:1007D00081E696E0099580915B04882309F46FC057
:1007E000F12C0F2EF3E2EF2EF02D6894BB24B1F81C
:1007F000CF2CD12CEC9C8001ED9C100D1124F80124
:10080000EA59FA4F85E0DE01119601900D928A9522
:10081000E1F7D801AA59BA4FF801E559FA4F85E036
:1008200001900D928A95E1F7D801A559BA4F85E05C
:10083000FE01319601900D928A95E1F761E084EB1B
:1008400091E00E94B50E0B591A4FE0914701F091CB
:1008500048010590F491E02DD80190964C91B80193
:1008600081E696E00995E0914501F09146010590F9
:10087000F491E02D40E0BE016F5F7F4F81E696E08E
:1008800009958D7F49F4F8018E2D11928A95E9F72B
:10089000F80181E082A30DC061E08CEC91E00E9440
:1008A000B50EEC9CF001ED9CF00D1124EB59FA4FC4
:1008B000B2A2F39480915B04F81608F499CF1092D9
:1008C0005B04E0914301F09144010590F491E02D27
:1008D00081E696E009950F900F900F900F900F9082
:1008E000DF91CF911F910F91FF90EF90DF90CF900C
:1008F000BF9008950F931F93CF93DF9380915C0473
:10090000882309F495C0C0E0D3E20C2F10E0D09FFB
:10091000F001D19FF00D1124EA54FB4F80818B34FC
:1009200061F1803509F44DC0823409F06FC061E097
:1009300085ED91E00E94B50ED09FF001D19FF00DA2
:100940001124EA54FB4F8DB79EB780970FB6F894E9
:100950009EBF0FBE8DBFADB7BEB7119680E20190AE
:100960000D928A95E1F7E3D0ADB7BEB790960FB67A
:10097000F894BEBF0FBEADBF49C0D09FF001D19F5C
:10098000F00D1124EA54FB4F80A18F938DB79EB7D1
:1009900080970FB6F8949EBF0FBE8DBFADB7BEB7A0
:1009A000119680E201900D928A95E1F70E946F0DF9
:1009B000ADB7BEB791960FB6F894BEBF0FBEADBF30
:1009C00025C061E083EF91E00E94B50ED09FF00159
:1009D000D19FF00D1124EA54FB4F8DB79EB780973D
:1009E0000FB6F8949EBF0FBE8DBFADB7BEB71196C0
:1009F00080E201900D928A95E1F799D0ADB7BEB72C
:100A000090960FB6F894BEBF0FBEADBFD09FF00159
:100A1000D19FF00D1124EA54FB4FDF018D2F1D9261
:100A20008A95E9F7CF5F80915C04C81708F46DCF11
:100A300010925C04DF91CF911F910F910895FF9266
:100A40000F931F93CF93DF93CDB7DEB763970FB6A6
:100A5000F894DEBF0FBECDBFE0914B01F0914C0189
:100A60000590F491E02D81E696E0099587E0E1E6B6
:100A7000F1E0DE01119601900D928A95E1F785E093
:100A8000FE013896DF01982F1D929A95E9F7FF87AE
:100A9000EE87888B81E0898B8A8B1B8AFF24F394F5
:100AA000FD86E0914901F0914A010590F491E02D15
:100AB0000F2D1E852F85388949895A896B8981E6D2
:100AC00096E00995F394A6E0FA12EACFE091490185
:100AD000F0914A010590F491E02D09811A812B8152
:100AE0003C814D815E816F8181E696E00995E091C0
:100AF0004101F09142010590F491E02D81E696E0EC
:100B00000995E0914F01F09150010590F491E02D8D
:100B100081E696E0099563960FB6F894DEBF0FBEA6
:100B2000CDBFDF91CF911F910F91FF900895CF938B
:100B3000DF93CDB7DEB780916204833070F561E05A
:100B40008FE092E00E94B50E2091620431E1239F74
:100B5000C0011124DC01A75EB94F35E0FE013696D5
:100B600001900D923A95E1F7DC01AC5EB94F35E0AA
:100B7000FE013B9601900D923A95E1F7DC01A25EF1
:100B8000B94F87E0FE01739601900D928A95E1F7C7
:100B90002F5F2093620481E001C080E0DF91CF915C
:100BA0000895CF92DF92EF92FF920F931F93CF930E
:100BB000DF93CDB7DEB72E970FB6F894DEBF0FBE2A
:100BC000CDBF8B01E42E672B89F025E0241770F050
:100BD000C42ED12CA601BC018DE291E00E944115EA
:100BE000A601B80182E391E00E944115E0914B011A
:100BF000F0914C010590F491E02D81E696E0099585
:100C000087E0E8E6F1E0DE01119601900D928A9509
:100C1000E1F7E0914901F0914A010590F491E02D4E
:100C200009811A812B813C814D815E816F8181E632
:100C300096E00995FF24F394F88682E391E09A8781
:100C40008987EB861C86FD861E86E0913B01F0912C
:100C50003C010590F491E02D62E081E696E0099573
:100C6000E0914901F0914A010590F491E02D088549
:100C700019852A853B854C855D856E8581E696E0E4
:100C80000995E0914101F09142010590F491E02D28
:100C900081E696E00995E0914301F09144010590C9
:100CA000F491E02D81E696E00995ECE2F1E0F08226
:100CB000F38681E02E960FB6F894DEBF0FBECDBF4F
:100CC000DF91CF911F910F91FF90EF90DF90CF9028
:100CD00008950F931F93CF93DF93CDB7DEB72F9770
:100CE0000FB6F894DEBF0FBECDBF8E010F5F1F4F52
:100CF0008FE0F80111928A95E9F782E4898384E311
:100D00008F8785E0E2E5F6E0DE01129601900D9214
:100D10008A95E1F7E0914F01F09150010590F4912F
:100D2000E02D81E696E00995E0914701F0914801B8
:100D30000590F491E02D4FE0B80181E696E0099529
:100D4000E0914501F09146010590F491E02D40E0DD
:100D50006FEC73E081E696E009958D7F81F4E09178
:100D60004301F09144010590F491E02D81E696E075
:100D7000099561E087E292E0F8D781E00BC0E0914D
:100D80004301F09144010590F491E02D81E696E055
:100D9000099580E02F960FB6F894DEBF0FBECDBF49
:100DA000DF91CF911F910F9108952F923F924F9213
:100DB0005F926F927F928F929F92AF92BF92CF92EB
:100DC000DF92EF92FF920F931F93CF93DF93CDB7F4
:100DD000DEB7E4970FB6F894DEBF0FBECDBF4091EB
:100DE0005E0450915F044F5F5F4F50935F044093E8
:100DF0005E04E0915D048E2F90E08730910508F04D
:100E000043C6FC01EC5CFF4F0C94FE13809162041E
:100E1000811156C3B6C58091620481110EC24DC3C3
:100E2000809161048111DBC0A2C1809162048111B3
:100E300042C0AEC004DE81E080935D041092610484
:100E400010925F0410925E0461E08CE392E08DD713
:100E50001BC69A013695279536952795ABE7B4E1E1
:100E60000E9404149695879564E6689F9001699F97
:100E7000300D11244217530709F006C610925F0483
:100E800010925E0426DF882309F4FEC561E081E547
:100E900092E06BD782E080935D048FEF9FEF909399
:100EA0003A018093390185E0E7E4F6E0DF011D9225
:100EB0008A95E9F7E9C510E001E10F2EF6E0BF2EB3
:100EC000F02DFE0131967F01C12ED12C0C9DF00139
:100ED0000D9DF00D1124EC5EF94F8285813309F0F0
:100EE00045C080916104833008F040C061E086E62F
:100EF00092E03BD780906104912C85E090E00E94C5
:100F00001314F401EE0FFF1FE95BF94F9183808307
:100F1000D701EB2D1D92EA95E9F70C9DC0010D9DBF
:100F2000900D11249C01275E394F490185E0F9019C
:100F3000D70101900D928A95E1F761E0C70115D7BD
:100F4000E0916104F0E0EE0FFF1FE95BF94FA08133
:100F5000B181109759F085E0F40101900D928A95C6
:100F6000E1F7809161048F5F809361040C9DF00133
:100F70000D9DF00D1124EC5EF94FDF01202F1D9225
:100F80002A95E9F71F5F80916204181708F49CCF37
:100F90001092620480915E0490915F048C329140C3
:100FA00008F472C510925F0410925E04809161048F
:100FB000882391F061E089E792E0D7D683E08093BF
:100FC0005D04E0914F01F09150010590F491E02D06
:100FD00081E696E0099558C510925D0455C5312CFF
:100FE0000F2EF1E42F2EF02D4E0181E2880E911C80
:100FF000DE0111963D0161E088E992E0B6D62CAAA7
:10100000F40126E011922A95E9F7C32CD12C860130
:10101000000F111F095B194FD801ED91FC9185E07C
:10102000D40101900D928A95E1F761E0C4019DD64B
:10103000F80180819181892B09F48AC06894552434
:1010400052F8412C580161E088EA92E08ED6E09196
:101050004701F09148010590F491E02D41E0BE0177
:101060006C5C7F4F81E696E009950E94D5132EA710
:101070003FA748AB59AB6AAB7BABD5016D917C9177
:10108000E0914501F09146010590F491E02D40E09A
:1010900081E696E00995182F0E94D51328A739A755
:1010A0004AA75BA76CA77DA7111110C0E22EF32EF3
:1010B000042F152F262F372F4EA55FA568A979A9D4
:1010C0008AA99BA90E947513460E04C061E080EDB9
:1010D00091E04BD65A945110B6CF46944694F30102
:1010E0002CE011922A95E9F7042D10E01F924F92FF
:1010F00082EB92E09F938F937F926F920E944A15AA
:101100001C8661E0C30131D60F900F900F900F90B5
:101110000F900F908091390190913A0108171907AB
:10112000B8F461E085EB92E020D610933A01009389
:101130003901F601EE0FFF1FE95BF94F0190F081D5
:10114000E02D85E0ADE4B6E001900D928A95E1F7DF
:10115000F601EE0FFF1FE95BF94F808191810E943C
:10116000AB14339480916104381608F444CFBE0167
:101170006F5F7F4F80E2FB0111928A95E9F780E56E
:10118000898385E0E2E5F6E0DE01129601900D929A
:101190008A95E1F785E0EDE4F6E0DE01179601902F
:1011A0000D928A95E1F780E38E8780E390E39D8737
:1011B0008C878FE48F878BE4888B81E3898BE09128
:1011C0004701F09148010590F491E02D41E181E65D
:1011D00096E00995E0914501F09146010590F49162
:1011E000E02D40E06DE476E081E696E0099581111E
:1011F0001DC0E0914301F09144010590F491E02D70
:1012000081E696E00995E0913B01F0913C01059063
:10121000F491E02D62E081E696E0099584E0809308
:101220005D0410925F0410925E042EC461E087ECAE
:1012300092E09BD510925D0427C400E011E1689410
:10124000332433F89E012F5F3F4F49010F2EFEE4F8
:10125000EF2EF02D0F2EFFE4FF2EF02D0F2EFBE4CE
:101260002F2EF02D0F2EF0E36F2E762CF02D0F2E5B
:10127000FCE24F2EF1E05F2EF02D61E088E192E07C
:1012800074D5C02ED12C1C9DF0011D9DF00D112494
:10129000EC5EF94F8285823321F0833309F48AC0F2
:1012A000FAC061E085ED92E060D51C9DC0011D9DF6
:1012B000900D1124DC01A75EB94F5D0145E050E0BF
:1012C0006DE476E0CD010E943415892B09F054C0FD
:1012D0001C9DF0011D9DF00D1124EC5EF94F8385DE
:1012E0008235C1F561E08EEE92E03FD5F40120E257
:1012F00011922A95E9F730E539831C9DC0011D9DA7
:10130000900D1124FC01EC5EF94F25E0DE011296F0
:1013100001900D922A95E1F7F50185E0DE0117961F
:1013200001900D928A95E1F780E38E877D866C8629
:10133000FF86288A82E3898BE0913D01F0913E018E
:101340000590F491E02D212FA40160E081E696E064
:101350000995A1C0803509F09EC061E08EEF92E052
:1013600004D51C9DB0011D9D700D1124605E794F48
:1013700045E0C50116DC8FC0D401E32D1D92EA952E
:10138000E9F7E982FA822B8285E0F501DE01149605
:1013900001900D928A95E1F7E0913D01F0913E01B7
:1013A0000590F491E02D232DA40160E081E696E004
:1013B000099571C01C9DC0011D9D900D112445E033
:1013C00050E06DE476E0875E994F0E943415892BDA
:1013D00009F061C01C9DF0011D9DF00D1124EC5E13
:1013E000F94F83858334E1F561E080E193E0BDD47A
:1013F000D401E0E21D92EA95E9F7F0E5F9831C9D3E
:10140000C0011D9D900D1124FC01EC5EF94F25E0FB
:10141000DE01129601900D922A95E1F7FC01E75E3C
:10142000F94F85E0DE01179601900D928A95E1F75C
:1014300080E38E877D866C86FF86288A83E3898B8E
:10144000E0913D01F0913E010590F491E02D212FB6
:10145000A401D2011B966C9181E696E009951BC010
:101460008434C9F40F2EF5E0BF2EF02DE7E4F6E04A
:101470002B2D11922A95E9F78FEF9FEF90933A0168
:101480008093390161E084E293E06FD4B0925D040F
:1014900082E0D2018C931C9DF0011D9DF00D112462
:1014A000EC5EF94FDF01212F1D922A95E9F70F5FBE
:1014B00080916204081708F4E0CE10926204E4C23E
:1014C000C12C0F2EF1E1DF2EF02D0F2EFDE07F2E2F
:1014D000F02D6894442441F86894552455F8CE01C1
:1014E00001964C010F2EF0E56F2EF02D0F2EF3E339
:1014F000FF2EF02D0F2EF2E33F2EF02D0F2EF2E5F2
:101500002F2EF02DAC2CB12CDA9CF001DB9CF00DD1
:101510001124EC5EF94F8285843309F05BC061E0F1
:101520008EE393E022D4D401E52D1D92EA95E9F7EC
:10153000698285E0E2E3F1E0DE01129601900D920E
:101540008A95E1F7DA9C8001DB9C100D1124F801EB
:10155000E75EF94F85E0DE01179601900D928A95BE
:10156000E1F781E38F87E0914F01F0915001059001
:10157000F491E02D81E696E00995E0914701F09124
:1015800048010590F491E02D4FE0B40181E696E02A
:101590000995B801675E794FE0914501F0914601E8
:1015A0000590F491E02D40E081E696E00995182F32
:1015B000E0914301F09144010590F491E02D81E622
:1015C00096E009951D7F09F0CAC161E084E593E0CA
:1015D000CCD3C5C1DA9C8001DB9C100D1124025EC6
:1015E000194F43E050E06DE573E0C8010E943415E7
:1015F000892B09F000C161E081E693E0B6D3D40104
:10160000E52D1D92EA95E9F7698285E0E2E3F1E0D4
:10161000DE01129601900D928A95E1F7DA9C800125
:10162000DB9C100D1124F801E75EF94F85E0DE0127
:10163000179601900D928A95E1F73F86288AE091EE
:101640004F01F09150010590F491E02D81E696E074
:101650000995E0914701F09148010590F491E02D42
:1016600040E1B40181E696E00995075E194FE091EB
:101670004501F09146010590F491E02D40E0B8015C
:1016800081E696E00995FFEF2FE035E0F15020402C
:101690003040E1F700C0000085E0EFE6F1E0DE0158
:1016A000989601900D928A95E1F785E0FE01B89633
:1016B000DE01519601900D928A95E1F7688AE091DA
:1016C0004701F09148010590F491E02D45E1B40106
:1016D00081E696E00995E0914501F091460105907B
:1016E000F491E02D40E0B80181E696E00995E82EFE
:1016F000E0914301F09144010590F491E02D81E6E1
:1017000096E009958E2D8D7F21F461E084E593E0CC
:101710002CD3809160048230B0F4789EC0011124F3
:10172000DC01AD5EBE4F25E0FE01B89601900D9242
:101730002A95E1F7DC01A85EBE4F85E0F801019033
:101740000D928A95E1F7E0914B01F0914C010590E3
:10175000F491E02D81E696E0099580916004789EF1
:10176000C0011124FC01EE5EFE4F238529A3885E93
:101770009E4F9BA38AA385E08CA31DA2EE24E39435
:10178000EEA21FA2E0913B01F0913C010590F49183
:10179000E02D642D81E696E00995E0914901F091F4
:1017A0004A010590F491E02D09A11AA12BA13CA1B9
:1017B0004DA15EA16FA181E696E00995E0914101FE
:1017C000F09142010590F491E02D81E696E00995B3
:1017D000E0914301F09144010590F491E02D81E600
:1017E00096E00995E09160047E9EF0011124EE5E82
:1017F000FE4FE082B4C043E050E06CE773E0C80104
:101800000E943415892B09F092C061E080E893E0D2
:10181000ACD2D401E52D1D92EA95E9F7698285E005
:10182000E2E3F1E0DE01129601900D928A95E1F774
:10183000E09160047E9EF0011124ED5EFE4F85E094
:10184000DE01179601900D928A95E1F7FF86F3E489
:10185000F88BE0914F01F09150010590F491E02D4B
:1018600081E696E00995E0914701F09148010590E5
:10187000F491E02D40E1B40181E696E00995609194
:101880006004769EB00111246D5E7E4FE0914501AB
:10189000F09146010590F491E02D40E081E696E05C
:1018A00009952FEF3FE085E0215030408040E1F77F
:1018B00000C0000094E4988BE0913B01F0913C0162
:1018C0000590F491E02D642D81E696E00995E09174
:1018D0004701F09148010590F491E02D40E1B401F9
:1018E00081E696E0099560916004769EB00111242E
:1018F0006D5E7E4FE0914501F09146010590F491B7
:10190000E02D40E081E696E00995182FE091430133
:10191000F09144010590F491E02D81E696E009955F
:101920001D7FE9F461E084E593E01FD218C043E035
:1019300050E06CE973E0C8010E943415892B79F4FA
:1019400061E080EA93E011D280916004789EF0011A
:101950001124EE5EFE4F40828F5F80936004DA9C1C
:10196000F001DB9CF00D1124EC5EF94FDF012D2D11
:101970001D922A95E9F7C39480916204C81608F471
:10198000C1CD1092620440915E0450915F049A01AF
:101990003695279536952795ABE7B4E135D79695DB
:1019A000879564E6689F9001699F300D1124421766
:1019B000530709F069C010925F0410925E04E09131
:1019C0004F01F09150010590F491E02D81E696E0F1
:1019D000099581E48983E0914701F09148010590E0
:1019E000F491E02D41E0BE016F5F7F4F81E696E00C
:1019F0000995E0914501F09146010590F491E02DA3
:101A000040E06DE271E081E696E00995182FE091E3
:101A10004301F09144010590F491E02D81E696E0B8
:101A20000995111108C080913801882369F181500E
:101A30008093380109C061E08EEA93E096D1ECE230
:101A4000F1E084858F5F8487809138018530E0F0F4
:101A500061E08CEB93E089D186E080935D0414C053
:101A60008DE0ECE2F1E0DF011D928A95E9F7E0916B
:101A70003B01F0913C010590F491E02D62E081E69C
:101A800096E0099510925D04E4960FB6F894DEBFD7
:101A90000FBECDBFDF91CF911F910F91FF90EF90BF
:101AA000DF90CF90BF90AF909F908F907F906F907E
:101AB0005F904F903F902F90089545E050E060E098
:101AC00070E082E596E00C94EB1708954AE050E050
:101AD0006DE170E087E596E00C94EB1708950F93A5
:101AE0001F93CF93DF93CDB7DEB7A5970FB6F894CA
:101AF000DEBF0FBECDBF2D961FAD2D970AAD61E0A5
:101B000084ED93E032D1113009F03EC0023509F086
:101B100081C085E0E2E5F6E0DE01DF9601900D92FE
:101B20008A95E1F72FEF8FE095E0215080409040BB
:101B3000E1F700C000008FE48AAF94E59BAF91E429
:101B40009CAF8DAF8BE48EAF88E18F93EDB7FEB77E
:101B5000B0970FB6F894FEBF0FBEEDBFADB7BEB7DE
:101B6000119680E2FE01BC9601900D928A95E1F7F4
:101B70000E94A4030FB6F894DEBF0FBECDBF61E094
:101B800083EE93E0F2D046C01A3009F043C080E201
:101B9000FE01BC96DE01119601900D928A95E1F747
:101BA0004AE050E0BE01615F7F4F87E596E05CD779
:101BB000892B81F50DD5F8948E010F5D1F4F85E0BF
:101BC000F80111928A95E9F78AEA89A345E050E085
:101BD00066E170E0CE0102960E94FB1741E050E002
:101BE00065E170E0C8010E94FB1744E050E069E045
:101BF00070E0C8010E94FB17E0914B01F0914C018D
:101C00000590F491E02D81E696E0099580E0CDD431
:101C100085E5EAD4A5960FB6F894DEBF0FBECDBF1A
:101C2000DF91CF911F910F9108951F920F920FB6E0
:101C30000F921124109285060F900FBE0F901F90E7
:101C400018951F920F920FB60F9211248F939F93A6
:101C5000EF93FF938091C0008C7191F0E0ECF0E085
:101C600080818C7190E09595879595958795809367
:101C7000860686E0809388068081837E808313C0F9
:101C800082E080938806E091870681E08E0F809342
:101C900087069091C600F0E0E757F94F90838832AD
:101CA00010F010928706FF91EF919F918F910F9006
:101CB0000FBE0F901F90189591E0873008F490E0C8
:101CC000911145C091E0673008F490E091113FC058
:101CD000109287061092850610928806E1ECF0E0DB
:101CE000908198619083A2ECB0E09C9196609C9367
:101CF000908190689083908190649083000070E060
:101D0000FB01EE0FFF1FE60FF71FEE0FFF1FE80F9F
:101D1000F11DEE0FFF1FEA50FC4F808191818F3F34
:101D20002FEF9207B1F08093C400413039F4E2EC18
:101D3000F0E080818062808382E00895423059F42F
:101D4000E2ECF0E080818063808382E0089580E0AF
:101D5000089581E0089582E008958093C600E0EC44
:101D6000F0E0808185FFFDCF08951F93CF93DF932F
:101D7000EC01162F892B51F08881882339F02196A8
:101D8000ECDF209719F089918111FACF112321F00E
:101D90008AE0E3DF8DE0E1DFDF91CF911F910895CD
:101DA000CF93982F92959F70C82FCF709A3020F0C4
:101DB00087E3890FD2DF03C080E3890FCEDFCA300B
:101DC00020F087E38C0FC9DF03C080E38C0FC5DFF1
:101DD000CF9108951F920F920FB60F9211242F9357
:101DE0003F934F935F936F937F938F939F93AF93A3
:101DF000BF93EF93FF93E6E6F4E080818F5F8083EB
:101E000090916904891308C010926604E0916C04F3
:101E1000F0916D0480E00995FF91EF91BF91AF9132
:101E20009F918F917F916F915F914F913F912F91F2
:101E30000F900FBE0F901F901895CF92DF92EF92E8
:101E4000FF920F931F93CF93DF93CDB7DEB72C97FD
:101E50000FB6F894DEBF0FBECDBF9C2DC982DA82CB
:101E6000EB82FC820D831E832F83388749875A8734
:101E70006B877C874C815D810E811F81913061F180
:101E800038F0923009F45EC0933009F441C076C056
:101E9000813059F4E0E8F0E090819C7F9083E1E8A4
:101EA000F0E09081977E90833FC2811107C094B586
:101EB0009C7F94BD95B5977F95BDF5C1823009F0A3
:101EC0001EC2E0EBF0E090819C7F9083E1EBF0E0BC
:101ED0009081977F9083FDC1813009F425C28111E3
:101EE00008C094B59C7F916094BD95B5977F95BDD2
:101EF000DAC1823009F003C2E0EBF0E090819C7F10
:101F000091609083E1EBF0E09081977F9083E1C155
:101F1000813009F409C2811107C094B5936094BD62
:101F200095B5977F95BDBFC1823009F0E8C1E0EB60
:101F3000F0E0908193609083E1EBF0E09081977FF7
:101F40009083C7C1813009F4EFC1811108C094B5F5
:101F50009C7F926094BD95B5977F95BDA4C182305A
:101F600009F0CDC1E0EBF0E090819C7F926090831E
:101F7000E1EBF0E09081977F9083ABC19A81913043
:101F800009F49DC030F0923009F463C0933089F1B8
:101F9000CCC0611117C0813031F4E0E8F0E09081ED
:101FA0009F739083E8C1811104C094B59F7394BD61
:101FB000C7C1823009F0D6C1E0EBF0E090819F7399
:101FC0009083C7C1813031F4E0E8F0E090819F7CDC
:101FD0009083D1C1811104C094B59F7C94BDB0C1E0
:101FE000823009F0BFC1E0EBF0E090819F7C9083EC
:101FF000B0C1611117C0813031F4E0E8F0E09081A8
:10200000906C9083B8C1811104C094B5906C94BD5C
:1020100097C1823009F0A6C1E0EBF0E09081906CAE
:10202000908397C1813031F4E0E8F0E090819063D3
:102030009083A1C1811104C094B5906394BD80C107
:10204000823009F08FC1E0EBF0E0908190639083E3
:1020500080C161111AC0813039F4E0E8F0E090816C
:102060009F739068908387C1811105C094B59F7359
:10207000906894BD65C1823009F074C1E0EBF0E076
:1020800090819F739068908364C1813039F49091FE
:1020900081009F7C9062909380006DC1811105C08A
:1020A00094B59F7C906294BD4BC1823009F05AC1B7
:1020B000E0EBF0E090819F7C906290834AC16111D7
:1020C0001AC0813039F4E0E8F0E090819F739064A9
:1020D000908351C1811105C094B59F73906494BDE4
:1020E0002FC1823009F03EC1E0EBF0E090819F7398
:1020F000906490832EC1813039F4909181009F7C4F
:1021000090619093800037C1811105C094B59F7C88
:10211000906194BD15C1823009F024C1E0EBF0E07C
:1021200090819F7C9061908314C1E82FF0E09F0123
:102130002F54394F9B81D9019C93813039F421E888
:1021400030E0D9019C91987F9C930EC0811104C00E
:1021500095B5987F95BD08C0823031F421EB30E011
:10216000D9019C91987F9C939C8591FF3BC0611104
:102170001CC0813039F42FE630E0D9019C91926087
:102180009C9309C1811107C02EE630E0D9019C91D2
:1021900092609C9304C1823009F0F6C020E730E0E1
:1021A000D9019C9192609C93F2C06130D9F4813046
:1021B00039F42FE630E0D9019C9194609C93EBC0F8
:1021C000811107C02EE630E0D9019C9194609C9368
:1021D000E6C0823039F420E730E0D9019C91946068
:1021E0009C93D5C090FF1CC0813039F42FE630E0BD
:1021F000D9019C9191609C9315C0811107C02EE676
:1022000030E0D9019C9191609C9316C0823009F016
:10221000CAC020E730E0D9019C9191609C9313C023
:10222000813041F45527509385004093840061111B
:102230001BC00EC0811104C046BD662381F014C0CE
:10224000823009F0B0C04093B200662351F00CC058
:10225000D801BB27B0938900A0938800A4C007BD14
:10226000A2C00093B3009FC0613009F09CC08130D0
:1022700039F4D801BB27B0938B00A0938A0093C098
:10228000811102C008BD8FC0823009F08CC000935C
:10229000B40089C0E82FF0E09F012F54394F9B8193
:1022A000D9019C9355CF9A81913009F408CF08F455
:1022B00070CE923009F4CDCE933009F49ACEEACFA5
:1022C000E82FF0E09F012F54394F9B81D9019C9357
:1022D00045CF9A81913009F4F2CE08F45ACE92306B
:1022E00009F4B7CE933009F484CEEACFE82FF0E0BA
:1022F0009F012F54394F9B81D9019C9335CF9A81EF
:10230000913009F4DCCE08F444CE923009F4A1CE29
:10231000933061F76ECEE82FF0E09F012F54394FD4
:102320009B81D9019C930BCF9A81913009F4C7CE40
:1023300008F42FCE923009F48CCE933061F759CE49
:10234000E82FF0E09F012F54394F9B81D9019C93D6
:10235000FFCEE82FF0E09F012F54394F9B81D90128
:102360009C93FCCEE82FF0E09F012F54394F9B81C6
:10237000D9019C93F9CEE82FF0E09F012F54394FFB
:102380009B81D9019C93DBCE90FF4ACF0CC09C85EA
:1023900090FF59CF3ECF9C8590FD28CF43CF9C85A1
:1023A00090FF4ACF2CCFED59FB4F81E080832C96D4
:1023B0000FB6F894DEBF0FBECDBFDF91CF911F9156
:1023C0000F91FF90EF90DF90CF90089590E0FC0187
:1023D000ED59FB4F20812150223058F4FC01EE0FC3
:1023E000FF1FE459FB4F71836083FC01E759FB4FEA
:1023F00040830895282F30E0F901ED59FB4F90817B
:102400009150923008F0B5C0F901EF54F94FE081D6
:102410004E2F50E04730510508F0A6C0FA01E55CA8
:10242000FF4FECC1823039F4E1EBF0E08081887F2E
:102430008160808399C0813039F4E1E8F0E08081E7
:10244000887F8160808390C081118EC085B5887F30
:10245000816085BD89C0823039F4E1EBF0E0808194
:10246000887F8260808380C0813039F4E1E8F0E0C9
:102470008081887F8260808377C0811175C085B537
:10248000887F826085BD70C0813009F46DC0811184
:1024900005C085B5887F836085BD66C0823009F040
:1024A00063C0E1EBF0E08081887F836080835CC063
:1024B000823039F4E1EBF0E08081887F84608083B2
:1024C00053C0813039F4E1E8F0E08081887F836097
:1024D00080834AC0811148C085B5887F836085BDEF
:1024E00043C0813009F440C0811105C085B5887FA3
:1024F000836085BD39C08230B9F5E1EBF0E08081C1
:10250000887F8360808330C0823039F4E1EBF0E073
:102510008081887F8660808327C0813039F4E1E83C
:10252000F0E08081887F846080831EC081111CC0A0
:1025300085B5887F846085BD17C0823031F4E1EBBA
:10254000F0E08081876080830FC0813039F4E1E85A
:10255000F0E08081887F8560808306C0811104C09F
:1025600085B5887F856085BDF901ED59FB4F83E016
:1025700080830895813029F48091840090918500B2
:102580000895811103C086B590E00895823021F44A
:102590008091B20090E0089580E090E00895982F37
:1025A0009D7F81E009F480E0089583FD02C098E0FA
:1025B00001C098E28770892B98E10FB6F894A8952E
:1025C000909360000FBE809360000895A8950895D1
:1025D0000FB6F894A89580916000886180936000A0
:1025E000109260000FBE08958093B806FFCF04B626
:1025F00002FC0BC004B601FC0AC004B600FC09C012
:1026000004B603FC08C084E0089582E0089581E0E8
:10261000089580E0089583E008958091B8060895B4
:102620001F920F920FB60F9211248F939F93AF9327
:10263000BF938091720490917304A0917404B0913F
:1026400075040196A11DB11D8093720490937304CB
:10265000A0937404B0937504BF91AF919F918F9133
:102660000F900FBE0F901F901895CF92DF92EF92B0
:10267000FF920F931F93CF93DF93CDB7DEB72C97C5
:102680000FB6F894DEBF0FBECDBF80E088DFE090CC
:1026900053011D821C829FE7192F198618867C859D
:1026A00071600F2EF3E0CF2EF02DD12CF12C0D8187
:1026B00020E030E04985582F62E080915401BDDB75
:1026C0002C960FB6F894DEBF0FBECDBFDF91CF9131
:1026D0001F910F91FF90EF90DF90CF90089560E0F1
:1026E00070E08091540186CE0895CF92DF92EF92F0
:1026F000FF920F931F93CF93DF93CDB7DEB72C9745
:102700000FB6F894DEBF0FBECDBF49835A836B83EB
:102710007C838D839E83EF82F88609871A872B87B7
:102720003C87CF80D884E984FA8489819A81AB81FF
:10273000BC81C81AD90AEA0AFB0ACC0CDD1CEE1CC3
:10274000FF1CCC0CDD1CEE1CFF1CCC0CDD1CEE1C9D
:10275000FF1CCC0CDD1CEE1CFF1CCC0CDD1CEE1C8D
:10276000FF1CCC0CDD1CEE1CFF1CCC0CDD1CEE1C7D
:10277000FF1C2B853C858D819E81281B390BAFEF7B
:10278000BFE742D06C0D7D1D8E1D9F1D2C960FB690
:10279000F894DEBF0FBECDBFDF91CF911F910F9197
:1027A000FF90EF90DF90CF9008950F931F93CF93FA
:1027B000DF9300D000D000D0CDB7DEB71091720407
:1027C0000091730480915401D5DEA0E0B0E08983CC
:1027D0009A83AB83BC83282F3A814B815C81612F24
:1027E000702F80E090E026960FB6F894DEBF0FBE03
:1027F000CDBFDF91CF911F910F910895EE0FFF1F75
:102800000590F491E02D0994A29FB001B39FC001FF
:10281000A39F700D811D1124911DB29F700D811D0C
:102820001124911D08950F931F93CF93DF9382304E
:10283000910510F482E090E0E091B606F091B706C1
:1028400020E030E0A0E0B0E0309719F14081518104
:102850000281138148175907C8F08417950769F456
:10286000109731F012960C93129713961C9327C071
:102870000093B6061093B70622C02115310519F052
:102880004217530718F49A01BD01EF01DF01F80167
:10289000DBCF21153105F9F0281B390B2430310528
:1028A00080F48A819B816115710521F0FB0193837E
:1028B000828304C09093B7068093B606FE013296D9
:1028C00044C0FE01E20FF31F81939193225031091E
:1028D000398328833AC02091B4063091B506232B62
:1028E00041F420910201309103013093B506209309
:1028F000B40620910001309101012115310541F408
:102900002DB73EB74091040150910501241B350BB2
:10291000E091B406F091B506E217F307A0F42E1B80
:102920003F0B2817390778F0AC014E5F5F4F241733
:10293000350748F04E0F5F1F5093B5064093B4061D
:102940008193919302C0E0E0F0E0CF01DF91CF915D
:102950001F910F910895CF93DF93009709F481C0E1
:10296000FC01329713821282A091B606B091B7068D
:10297000109781F420813181820F931F2091B4063A
:102980003091B5062817390751F5F093B506E09355
:10299000B40667C0ED0120E030E0CE17DF0740F459
:1029A0004A815B819E0141155105F1F0EA01F5CFA5
:1029B000D383C28340815181840F951FC817D907E3
:1029C00059F488819981840F951F029691838083A1
:1029D0008A819B81938382832115310529F4F093A9
:1029E000B706E093B6063DC0E901FB83EA8349914F
:1029F0005991C40FD51FEC17FD0761F480819181B7
:102A0000840F951F0296E9019983888382819381BF
:102A10009B838A83E0E0F0E012968D919C9113975E
:102A2000009719F0FD01DC01F7CF8D919C91119772
:102A30009D012E5F3F4F820F931F2091B40630916E
:102A4000B5062817390769F4309729F41092B706AC
:102A50001092B60602C013821282B093B506A093FC
:102A6000B406DF91CF910895FB01DC0104C08D9184
:102A70000190801921F441505040C8F7881B990BF0
:102A80000895FB01DC0102C001900D9241505040BD
:102A9000D8F70895AEE0B0E0EFE4F5E1DBC20D89D0
:102AA0001E8986E08C831A8309838FEF9FE79E83BC
:102AB0008D83AE01475E5F4F6F89788DCE010196A1
:102AC00008D0EF81F885E00FF11F10822E96E4E028
:102AD000DDC2ABE0B0E0EEE6F5E1AEC26C017B0139
:102AE0008A01FC0117821682838181FFBFC1CE015A
:102AF00001963C01F6019381F70193FD859193FFC7
:102B000081917F01882309F4ADC1853239F493FDA9
:102B1000859193FF81917F01853221F4B60190E088
:102B2000C0D1E8CF912C212C312CFFE1F315D8F046
:102B30008B3279F038F4803279F08332A1F4232D8E
:102B400020611DC08D3261F0803369F4232D216036
:102B500016C0832D8260382EE32DE4603E2E2AC0FD
:102B6000F32DF8601DC037FC2DC020ED280F2A3052
:102B700040F08E32B9F436FC75C1232D2064322E1C
:102B800019C036FE06C08AE0989E200D1124922EB0
:102B900011C0EAE02E9E200D1124222EF32DF062AA
:102BA0003F2E08C08C3621F4832D8068382E02C059
:102BB000883641F4F70193FD859193FF81917F0160
:102BC0008111B3CF982F9F7D9554933028F40C5FDB
:102BD0001F4F9FE399830DC0833631F0833771F027
:102BE000833509F055C020C0F801808189830E5FCC
:102BF0001F4F88248394912C530112C02801F2E0C6
:102C00004F0E511CF801A080B18036FE03C0692D23
:102C100070E002C06FEF7FEFC50138D14C01820137
:102C2000F32DFF773F2E15C0280122E0420E511CE4
:102C3000F801A080B18036FE03C0692D70E002C0AB
:102C40006FEF7FEFC50117D14C01F32DF0683F2ED8
:102C5000820133FC19C0822D90E088169906A0F4F9
:102C6000B60180E290E01DD12A94F5CFF50137FC42
:102C7000859137FE81915F01B60190E012D121105C
:102C80002A9421E0821A91088114910479F7E1C015
:102C9000843611F0893639F5F80137FE07C06081B6
:102CA0007181828193810C5F1F4F08C060817181A7
:102CB000072E000C880B990B0E5F1F4FF32DFF762C
:102CC0003F2E97FF09C090958095709561957F4F35
:102CD0008F4F9F4FF0683F2E2AE030E0A3011DD1B7
:102CE000882E861844C0853731F4232D2F7EB22ECE
:102CF0002AE030E025C0932D997FB92E8F36C1F0A0
:102D000018F4883579F0AEC0803719F0883721F093
:102D1000A9C0E92FE061BE2EB4FE0DC0FB2DF4600A
:102D2000BF2E09C034FE0AC0292F2660B22E06C06D
:102D300028E030E005C020E130E002C020E132E0D0
:102D4000F801B7FE07C060817181828193810C5FB9
:102D50001F4F06C06081718180E090E00E5F1F4FC1
:102D6000A301DBD0882E8618FB2DFF773F2E36FE81
:102D70000DC0232D2E7FA22E891458F434FE0BC0D3
:102D800032FC09C0832D8E7EA82E05C0B82CA32C42
:102D900003C0B82C01C0B92CA4FE0FC0FE01E80D81
:102DA000F11D8081803321F49A2D997EA92E09C0CE
:102DB000A2FE06C0B394B39404C08A2D867809F0AD
:102DC000B394A3FC10C0A0FE06C0B21480F4280C7B
:102DD000922C9B180DC0B21458F4B60180E290E01A
:102DE00060D0B394F8CFB21418F42B1802C0982C0A
:102DF000212CA4FE0FC0B60180E390E052D0A2FEC9
:102E000016C0A1FC03C088E790E002C088E590E00E
:102E1000B6010CC08A2D867851F0A1FE02C08BE26B
:102E200001C080E2A7FC8DE2B60190E03AD089149F
:102E300030F4B60180E390E034D09A94F8CF8A94CD
:102E4000F301E80DF11D8081B60190E02AD08110D8
:102E5000F6CF222009F44ECEB60180E290E021D0D8
:102E60002A94F7CFF6018681978102C08FEF9FEFFA
:102E70002B96E2E1FDC0FC0105906150704001100D
:102E8000D8F7809590958E0F9F1F0895FC01615093
:102E9000704001900110D8F7809590958E0F9F1F7C
:102EA00008950F931F93CF93DF93FB01238121FD9F
:102EB00003C08FEF9FEF2CC022FF16C046815781C1
:102EC000248135814217530744F4A081B1819D01CB
:102ED0002F5F3F4F318320838C93268137812F5F73
:102EE0003F4F3783268314C08B01EC01FB01008424
:102EF000F185E02D0995892BE1F6D80116968D9183
:102F00009C911797019617969C938E931697CE01D6
:102F1000DF91CF911F910F910895FA01AA272830D0
:102F200051F1203181F1E8946F936E7F6E5F7F4F96
:102F30008F4F9F4FAF4FB1E03ED0B4E03CD0670F12
:102F4000781F891F9A1FA11D680F791F8A1F911D65
:102F5000A11D6A0F711D811D911DA11D20D009F4B5
:102F600068943F912AE0269F11243019305D3193F7
:102F7000DEF6CF010895462F4770405D4193B3E0E0
:102F80000FD0C9F7F6CF462F4F70405D4A3318F087
:102F9000495D31FD4052419302D0A9F7EACFB4E038
:102FA000A6959795879577956795BA95C9F70097F0
:102FB0006105710508959B01AC010A2E0694579591
:102FC000479537952795BA95C9F7620F731F841FE8
:102FD000951FA01D0895DC01CB01FC01F999FECFDE
:102FE00006C0F2BDE1BDF89A319600B40D92415091
:102FF0005040B8F70895DC01A40FB51F4150504070
:1030000040F0CB01840F951F2E9105D041505040C8
:10301000D8F70895262FF999FECF92BD81BDF89A71
:10302000019700B4021639F01FBA20BD0FB6F8940C
:10303000FA9AF99A0FBE08952F923F924F925F929B
:103040006F927F928F929F92AF92BF92CF92DF92B8
:10305000EF92FF920F931F93CF93DF93CDB7DEB71D
:10306000CA1BDB0B0FB6F894DEBF0FBECDBF0994B1
:103070002A88398848885F846E847D848C849B8408
:10308000AA84B984C884DF80EE80FD800C811B8116
:10309000AA81B981CE0FD11D0FB6F894DEBF0FBE45
:0A30A000CDBFED010895F894FFCFB5
:1030AA001F920F920FB60F9211248F93EF93FF93F3
:1030BA00E1E6F6E0868D8F5F868F2A988FEF8EBDC8
:1030CA000DB407FEFDCF8EB5809380062A9A2A9802
:1030DA0087E28EBD0DB407FEFDCF80E78EBD0DB42D
:1030EA0007FEFDCF2A9AFF91EF918F910F900FBEA5
:0630FA000F901F901895D5
:103100000000BA062000960400760400A60400869B
:1031100004000000000000000000000000020000A9
:10312000000000000000000000000300000000009C
:10313000000000000000000100FFFF1E601C601A7C
:1031400060126010600E600C600A6006600460022D
:103150006000600602030B0F700201010300000112
:10316000000052060500010000CF030500010041E8
:10317000414131304170706C69636174696F6E00F8
:103180007764672070726576696F75732073772036
:1031900072657365743A2000776467207072657693
:1031A000696F75732068772072657365743A2000C3
:1031B0006D73670053656E64206D73672066726F70
:1031C0006D206F7574626F782E2E2E004D53473A26
:1031D0004E41434B0042726F616463617374206DB2
:1031E0006573736167652072656365697665642ED2
:1031F0002E2E0050616972696E67206D6573736170
:1032000067652072656365697665642E2E2E0052AF
:1032100065636569766564206578656375746520A6
:10322000636D642E2E2E004D6173746572204143D0
:103230004B2072656365697665642100456E74652F
:103240007220646973636F766572696E672E2E2EC5
:1032500000456E7465722077616974206D617374C6
:1032600065722E2E2E004D61737465722072657129
:1032700075657374202E2E2E0043616C63756C612E
:1032800074652070696E6720666F72206D6173745B
:10329000657273202E2E2E0070696E67206D61732B
:1032A000746572202E2E2E0050696E67207465732F
:1032B000740025750073617665206E6577206D61F9
:1032C000737465722E2E006E6F206D61737465725B
:1032D0002061636B00726164696F5F6C696E6B2063
:1032E0006578656375746520636D6420320072656E
:1032F000717565737420706169722E2E2E00636F74
:103300006E666967757265206C696E6B2E2E2E0075
:10331000636865636B20636F6E6E656374696F6E5F
:103320002E2E2E00636F6E6E656374696F6E20655E
:10333000737461626C69736865642E2E2E00436835
:10334000696C642070616972696E6720726571755D
:10335000657374006D73672073656E74004F4B3135
:10336000004368696C642061636365707465642000
:1033700074686973206D6173746572004F4B32001D
:10338000436865636B20636F6E6E656374696F6E0F
:103390002077697468206368696C64004F4B330060
:1033A0004368696C642070616972204F4B0041432F
:1033B0004B20526F6F743A204E4F4B00436F6E6E2E
:1033C000656374696F6E206C6F73742E2E2E0041CE
:1033D000414141416F746120707265706172652E68
:1033E0002E2E006F74612073656E642072782064E5
:1033F00065662E2E2E000C00060001000000FFFF67
:10340000FFFF19000C00030001000000FFFF330064
:103410001900080003000100FFFF670033001000DF
:1034200008000300FFFFCF00670022001000070024
:10343000FFFF3B001D00090004000000FFFF4700E4
:0A34400023000B0005000200FFFF4F
:00000001FF
